:020000040800F2
:100000008005002045010008890600088B060008CD
:100010008F060008930600089706000800000000FD
:100020000000000000000000000000009B06000827
:100030009D060008000000009F060008C10A000895
:100040005F0100085F0100085F0100085F01000810
:100050005F0100085F0100085F0100085F01000800
:100060005F0100085F0100085F0100085F010008F0
:100070005F0100085F0100085F0100085F010008E0
:100080005F0100085F0100085F0100085F010008D0
:100090005F0100085F0100085F01000855070008C4
:1000A0005F0100085F0100085F0100085F010008B0
:1000B00083070008CF0700085F0100085F01000800
:1000C0005F0100085F0100085F0100085F01000890
:1000D0005F010008A10600085F010008E9060008AA
:1000E0006D0700085F0100085F0100085F0100085C
:1000F0005F0100085F0100085F0100085F01000860
:100100005F0100085F0100085F0100085F0100084F
:100110005F0100085F0100085F0100085F0100083F
:100120005F0100085F0100085F0100085F0100082F
:10013000DFF80CD002F092FB00480047690100088C
:10014000800500200648804706480047FEE7FEE796
:10015000FEE7FEE7FEE7FEE7FEE7FEE7FEE7FEE777
:10016000D9200008310100080EB501F0B5FF00F0FC
:100170003EFD00F05DFC00F043FC00F08FFD00F060
:100180004EFF00F071FF00F0A1FF00F0ABFC00F0AB
:10019000E8FCC82000F082FC5FE2FE4800780028FE
:1001A000FAD0FD4801680091416801910189ADF8DC
:1001B0000810807A8DF80A000020F6490870F64889
:1001C00000785528E8D1F4484078512804D05228C6
:1001D00063D053287ED1C3E09DF802109DF8032020
:1001E00041EA022108B202F0FFF980460022EB4BFF
:1001F00002F08BF906460022E94B02F014F904469E
:1002000002F035FAE74908609DF804109DF80520D2
:1002100041EA022108B202F0E7F906460022DF4B6C
:1002200002F073F980460022DD4B02F0FCF8044630
:1002300002F01DFADB4948609DF806109DF8072082
:1002400041EA022108B202F0CFF980460022D34BE6
:1002500002F05BF906460022D14B02F0E4F80446B6
:1002600002F005FACF4988609DF808109DF8092032
:1002700041EA022108B202F0B7F980460022CA4BD7
:1002800002F043F906460022C84B02F025F8044666
:1002900002F0EDF9C6490860C4E09DF802109DF82F
:1002A000032041EA022108B202F09EF9064600222C
:1002B000BA4B02F02AF980460022BE4B02F0B3F896
:1002C000044602F0D4F9BC4908609DF804109DF87A
:1002D000052000E0A5E041EA022108B202F084F91D
:1002E00080460022AD4B02F010F906460022B14BC9
:1002F00002F099F8044602F0BAF9AF4948609DF857
:1003000006109DF8072041EA022108B202F06CF9BC
:1003100080460022A14B02F0F8F806460022A54BC9
:1003200002F081F8044602F0A2F9A34988609DF822
:1003300008109DF8092041EA022108B202F054F9A0
:1003400080460022984B02F0E0F806460022974BC8
:1003500001F0C2FF044602F08AF99549086061E0A5
:100360009DF802109DF8032041EA022108B202F034
:100370003BF906460022894B02F0C7F8804600226E
:100380008E4B02F050F8044602F071F98C49086077
:100390009DF804109DF8052041EA022108B202F000
:1003A00023F9804600227D4B02F0AFF8064600227A
:1003B000824B02F038F8044602F059F9804948604F
:1003C0009DF806109DF8072041EA022108B202F0CC
:1003D0000BF906460022714B02F097F88046002286
:1003E000764B02F020F8044602F041F97449886027
:1003F0009DF808109DF8092041EA022108B202F098
:10040000F3F880460022684B02F07FF8064600228F
:10041000664B01F061FF044602F029F96449086067
:1004200000E000BF00BF664948686649096801F0FE
:1004300085FE65490860654801686548006801F007
:100440007DFE05464FF0804101F006FF04465E4800
:100450000168204601F0C7FE5E4908605E495A48BF
:10046000006802F02BF916D25C495748006802F088
:100470001BF910D24FF07E515648006802F014F973
:1004800009D257495348006802F018F903D24E4880
:1004900000684C49086053494B48006802F00EF967
:1004A00018D251494848006802F0FEF812D2494873
:1004B00001684E48006801F099FE04464248016810
:1004C0004B48006801F092FE0546214601F088FE87
:1004D0004849086048493C48006802F0EFF827D2D4
:1004E00040493948006802F0DFF821D239480168F4
:1004F0003E48006801F07AFE06463D4801683A48E9
:1005000001F074FE074638492F48006801F016FED6
:1005100080463A480168404601F068FE0546394683
:1005200001F05EFE0446314601F05AFE3149086092
:100530002D492548006802F0C1F827D230492248E9
:10054000006802F0B1F821D222480168274800680B
:1005500001F04CFE064626480168234801F046FE9D
:10056000074621491848006801F03AFE80462348B2
:100570000168404601F03AFE0546394601F0DEFDCD
:100580000446314601F02CFE1A49086000201D493E
:10059000086039E0000100205C0100200000E0401C
:1005A00000003040380100200040754000204240EB
:1005B000E800002000409F40440100200080664089
:1005C0005001002018000020740000207C00002052
:1005D00078000020800000200000A0C00000A040A3
:1005E000000080BF000020C1000020411400002056
:1005F0000C000020680000200000C8C1100000208E
:100600000000C8416C0000201448006880F0004BD6
:1006100013480168584601F091FD824602F014F833
:100620000646104A104B01F0FEFE04460F4A104BDE
:1006300001F052FE804601F0E8FF0E4908600846CE
:10064000008881B20C4801F0E5FA0C4800680C49BA
:1006500008600C480068094908609EE568000020B1
:100660002000002097900F7A364B2140CDCCCCCC87
:10067000CC7C9740880000200008004078000020D3
:100680007C00002074000020704700BFFEE700BF20
:10069000FEE700BFFEE700BFFEE770477047704708
:1006A00010B540F22551514801F0C0FBD8B140F2DD
:1006B00025514E4801F0E4FB4C48001D0088C4B2AF
:1006C0004B484C49097844544A480078401C4949F1
:1006D000087008460078042805D1012046490870B2
:1006E00000204449087010BD10B540F22551434820
:1006F00001F09CFB38B3414801F08AFB4049414A74
:10070000127888543F48007820B908460078552868
:1007100000D010BD3B480078401C3A49087008469C
:1007200000780B280FD1384835490A6802604A68BA
:1007300042600A890281897A8172002031490870F9
:1007400001203249087040F225512C4801F098FBF5
:1007500000BFDEE710B5202001F0EBFB28B101203F
:100760002B490870202001F0F5FB10BD10B54FF4A7
:10077000005001F0DEFB18B14FF4005001F0EAFB2D
:1007800010BD10B50121880701F049FAF0B101212F
:10079000880701F055FA4FF08040808C44F62061C4
:1007A000884206DD1B480078401E40B21949087097
:1007B0000CE04FF08040808C42F21071884205DAE4
:1007C00014480078401C40B21249087010BD10B5A2
:1007D0000121114801F023FA30B101210E4801F046
:1007E0002FFA01200D49086010BD000000380140BB
:1007F000F6000020FA000020F5000020004800402C
:1008000072010020F40000205C01002000010020A3
:10081000E2000020AC00002000040040E4000020C2
:1008200008B50121084600F08CFD0121042000F0EC
:100830007BFD0720ADF8000018208DF80300032091
:100840008DF802006946734800F0B2FD08BD00B59E
:1008500087B044F61F60ADF814004720ADF81000D3
:100860000020ADF81600ADF8120004A94FF080404A
:1008700000F01CFF6020ADF800000120ADF8020080
:1008800065480088ADF806000020ADF8080069460C
:100890004FF0804000F047FF0821C80601F08EF9B4
:1008A0000120ADF802005D480088ADF806006946F9
:1008B0004FF0804000F079FF0821C80601F087F969
:1008C0000120ADF8020056480088ADF806006946E0
:1008D0004FF0804000F0B6FF0821C80601F084F90F
:1008E0000120ADF802004F480088ADF806006946C7
:1008F0004FF0804000F0F1FF0821C80601F07DF9BB
:100900000121880701F04EF90121880701F035F92E
:1009100007B000BD08B50121042000F012FD01213F
:10092000082000F001FD4FF47070ADF800001820B1
:100930008DF8030003208DF8020069463A4800F064
:1009400037FD08BD00B587B044F61F60ADF8140050
:100950004720ADF810000020ADF81600ADF81200E9
:1009600004A9324800F0A2FE6020ADF8000001208A
:10097000ADF8020028480088ADF806000020ADF868
:1009800008006946294800F0CEFE0821274801F0FA
:1009900015F90120ADF8020020480088ADF80600E6
:1009A0006946224800F001FF0821204801F00FF9B4
:1009B0000120ADF802001A480088ADF8060069462B
:1009C0001A4800F03FFF0821184801F00DF90120F6
:1009D000ADF8020013480088ADF8060069461348D8
:1009E00000F07BFF0821114801F007F901210F48B1
:1009F00001F0D8F801210D4801F0BFF807B000BDA3
:100A000010B5FFF70DFFFFF722FFFFF783FFFFF79A
:100A100099FF10BD000801400201002004010020E0
:100A20000601002008010020000C014000080040E1
:100A300030B5284800684FF47A72B0FBF2F1B1F19A
:100A4000807F01D301201DE021F07F40401E4FF048
:100A5000E022506150170F22002807DA13071D0EFD
:100A60001D4B00F00F04241F1D5503E013071C0E3F
:100A70001A4B1C5400BF00204FF0E0229061072069
:100A80001061002008B100BFFEE74FF0E0200069D0
:100A900020F001004FF0E021086130BD01B51049A0
:100AA000009808604FF0E020006940F001004FF02E
:100AB000E021086100BF0A4800680028FBD108BD9A
:100AC0000748006820B106480068401E04490860D5
:100AD000704700002401002018ED00E000E400E071
:100AE0000C01002000B585B0012144F2040000F0A3
:100AF0001BFC4FF40070ADF8100018208DF81300A7
:100B000003208DF8120004A9604800F051FC4FF456
:100B10008060ADF8100004208DF8130004A95B4834
:100B200000F046FC4FF4E13000900020ADF80400E6
:100B3000ADF80600ADF80800ADF80C000C20ADF8DB
:100B40000A006946524801F0C9F8012240F22551D5
:100B50004F4801F038F901214D4801F028F905B05E
:100B600000BD00B585B00121880400F0EAFB012139
:100B7000082000F0D9FB4FF48060ADF81000182079
:100B80008DF8130003208DF8120004A9414800F0ED
:100B90000FFC4FF40060ADF8100004208DF8130036
:100BA00004A93C4800F004FC4FF4E1300090002020
:100BB000ADF80400ADF80600ADF80800ADF80C0083
:100BC0000C20ADF80A006946334801F087F801228D
:100BD00040F22551304801F0F6F801212E4801F08D
:100BE000E6F840212C4801F018F905B000BD08B521
:100BF0004FF4A06001F032F825208DF800000120AC
:100C00008DF8010000208DF8020001208DF803000E
:100C1000684601F028F827208DF8000000208DF8A4
:100C2000010002208DF8020001208DF803006846C3
:100C300001F019F81D208DF8000002208DF8010048
:100C400001208DF802008DF80300684601F00BF8D2
:100C500017208DF8000000208DF8010001208DF88C
:100C600002008DF80300684600F0FDFF28208DF893
:100C7000000000208DF8010001208DF802008DF8A1
:100C80000300684600F0EFFF08BD000000080140C7
:100C900000380140000C0140004800400EB5012121
:100CA000022000F04EFB124800F02CFC44F62060BD
:100CB000ADF804004720ADF800000020ADF80600B4
:100CC000ADF8020069460A4800F0F0FC012108482E
:100CD00000F0A2FF01221146054800F05AFF012151
:100CE000034800F04AFF0121022000F02AFB0EBD5C
:100CF0000004004008B501211C2000F015FBA020D5
:100D0000ADF8000018208DF8030003208DF80200D4
:100D10006946CA4800F04CFB4020ADF8000048206E
:100D20008DF803006946C54800F042FB1020ADF87D
:100D300000008DF8030003208DF802006946C048CA
:100D400000F036FB1020ADF800008DF80300032002
:100D50008DF802006946B94800F02AFB2020ADF862
:100D6000000048208DF803006946B54800F020FBDC
:100D70000020B44908604FF00100B349C1F8900168
:100D800008BD1CB50521022000F09BFB202000902F
:100D900000208DF804000C208DF8050001208DF84E
:100DA0000600684601F07EF81CBD10B586B004460A
:100DB0000121080300F0B8FA0020ADF804004FF458
:100DC0008270ADF806000020ADF80800ADF80A000A
:100DD000ADF80C004FF40070ADF80E003820ADF8FF
:100DE00010000020ADF812000720ADF8140001A992
:100DF000204601F0B5F80121204601F0CFF806B0F9
:100E000010BD70B505460C46904800884FF6C77176
:100E100008408E4908800846008820430880012148
:100E2000284601F0BBF870BD10B5044600BF022192
:100E3000864801F0C4F80028F9D02146834801F023
:100E4000B9F800BF0121814801F0B9F80028F9D0B4
:100E50007E4801F0B1F8C0B210BD70B505460C4631
:100E600000207B4908602846FFF7DEFF0646204643
:100E7000FFF7DAFF01207449C1F89001304670BDD8
:100E800070B504460020724908602046FFF7CCFF89
:100E9000FF20FFF7C9FF054601206B49C1F890010B
:100EA000284670BD2DE9F04107460D461646002044
:100EB000674908603846FFF7B7FF8046002405E021
:100EC000FF20FFF7B1FF2855601CC4B2B442F7DB26
:100ED00001205F4908604046BDE8F0812DE9F041FE
:100EE00007460C4615460020594908603846FFF76A
:100EF0009BFF8046002605E014F8010BFFF794FFE6
:100F0000701CC6B2AE42F7DB012051490860404672
:100F1000BDE8F08110B50720FFF7B2FF0446204678
:100F200010BD1CB54BA103C9CDE9000110214748F4
:100F3000FFF767FF052269463020FFF7CFFF052244
:100F400069461020FFF7AEFF002406E01DF80400FC
:100F5000A52800D003E0601CC4B2052CF6DB00BF5E
:100F6000052C01D001201CBD0020FCE710B500209D
:100F7000344908604FF0050238494FF03000FFF760
:100F8000ADFF052236492A20FFF7A8FF01212120C5
:100F9000FFF763FF01212220FFF75FFF1A212420C2
:100FA000FFF75BFF00212520FFF757FF0F212620C9
:100FB000FFF753FF0E212020FFF74FFF01202949A3
:100FC000C1F8900110BD10B500201E4908604FF017
:100FD00020014FF03100FFF740FF052220492A2071
:100FE000FFF77CFFFF21E220FFF737FF01212120DF
:100FF000FFF733FF01212220FFF72FFF00212520DB
:10100000FFF72BFF0F212620FFF727FF0F212020BE
:10101000FFF723FF01201349C1F8900110BD10B55F
:101020000224FFF767FE0948FFF7BFFEFFF779FFCD
:101030000446FFF7A6FEFFF7C6FF10BD00080140FB
:101040000010014090012142000022420030014086
:1010500090012242A5A5A5A5A5000000FA28000838
:10106000FF2800080000214210B500F049F84FF4B5
:10107000803000F065F800F0A2F80446012C24D17D
:10108000102000F0AEFF022000F0A2FF002000F0D0
:10109000CFF8002000F0DEF8A00200F0D2F84FF404
:1010A000E011200400F0A7F8012000F0B0F800BF24
:1010B000392000F068F80028FAD0022000F0AAF8E1
:1010C00000BF00F0B0F80828FBD110BD08B5012121
:1010D000082000F029F90121202000F025F90F2037
:1010E000ADF8000010208DF8030003208DF80200F9
:1010F0006946024800F05CF908BD00000014014098
:10110000A348006840F00100A14908600846406813
:10111000A04908409E494860084600689E4908402A
:101120009B4908600846006820F480200860084653
:10113000406820F4FE0048604FF41F00886070474C
:101140009349096821F48031914A11601146096878
:1011500021F480211160B0F5803F03D0B0F5802FDD
:101160000ED106E08A49096841F48031884A11604D
:1011700007E08749096841F4A021854A116000E031
:1011800000BF00BF704710B50146002200230020B9
:101190004A11012A02D17E4C236806E0022A02D1BC
:1011A0007B4C236A01E07A4C636A01F01F02012440
:1011B00094401C4201D0012000E0002010BD38B551
:1011C000002000900024002500BF3120FFF7DBFF46
:1011D00005460098401C00900098B0F5A06F01D023
:1011E000002DF2D03120FFF7CEFF08B1012400E03E
:1011F0000024204638BD02460020654B586820F484
:101200007C1042EA01031843614B58607047634900
:1012100008667047014600205D4A506820F00300D0
:101220000843506070475A48406800F00C0070470F
:1012300001460020564A506820F0F00008435060F4
:10124000704701460020524A506820F4E06008438D
:1012500050607047014600204D4A506820F46050AD
:1012600040EAC1005060704730B5002100220024E0
:101270000023474D6D6805F00C0121B1042905D00C
:10128000082923D105E0464D056022E0444D056064
:101290001FE03F4D6D6805F470123D4D6D6805F41B
:1012A0008034022505EB92421CB93E4D5543056042
:1012B0000BE0374D6D6815F4003F03D0394D5543B1
:1012C000056002E0364D5543056002E0344D05608F
:1012D00000BF00BF2E4D6D6805F0F0010909324DC9
:1012E0006B5C0568DD404560294D6D6805F4E06183
:1012F000090A2D4D6B5C4568DD408560244D6D68A5
:1013000005F46051C90A284D6B5C4568DD40C56035
:101310001F4D6D6805F44041890B244D6B5CC56819
:10132000B5FBF3F5056130BD29B1194A9269024355
:10133000174B9A6104E0164A92698243144B9A61F2
:10134000704729B1124AD2690243114BDA6104E0B5
:101350000F4AD26982430E4BDA61704729B10C4AB9
:10136000D26802430A4BDA6004E0094AD268824339
:10137000074BDA60704729B1054A12690243044BF2
:101380001A6104E0024A12698243014B1A617047F4
:10139000001002400000FFF8FFFFF6FE000042428E
:1013A00000127A0000093D001001002020010020F9
:1013B0002DE9F041024600250026002000230024EC
:1013C000002791F803C00CF00F0591F803C01CF042
:1013D000100F03D091F802C04CEA050591F800C047
:1013E000BCF1000F31D0146800202BE04FF0010C4D
:1013F0000CFA00F3B1F800C00CEA03069E4220D1BB
:1014000083004FF00F0C0CFA03F7BC4305FA03FC02
:101410004CEA040491F803C0BCF1280F06D14FF048
:10142000010C0CFA00FCC2F814C00AE091F803C0E9
:10143000BCF1480F05D14FF0010C0CFA00FCC2F8CA
:1014400010C0401C0828D1D31460B1F800C0BCF112
:10145000FF0F34DD546800202EE000F1080C4FF03F
:10146000010808FA0CF3B1F800C00CEA03069E422A
:1014700021D183004FF00F0C0CFA03F7BC4305FA9F
:1014800003FC4CEA040491F803C0BCF1280F05D119
:1014900000F1080C08FA0CF8C2F8148091F803C0A7
:1014A000BCF1480F07D100F1080C4FF0010808FA11
:1014B0000CF8C2F81080401C0828CED35460BDE858
:1014C000F08130B500228B071C0F0F2303FA04F2C2
:1014D0000B4B8C1053F824309343094C8D1044F877
:1014E000253023468C1053F824308C07240F00FA43
:1014F00004F42343024C8D1044F8253030BD000025
:101500000800014010B50446FE48844208D101217C
:10151000C014FFF723FF0021E014FFF71FFFC4E012
:10152000B4F1804F08D101210846FFF724FF0021C4
:101530000120FFF720FFB8E0F348844208D10121E1
:101540000220FFF718FF00210220FFF714FFACE094
:10155000EE48844208D101210420FFF70CFF00214E
:101560000420FFF708FFA0E0E948844208D10121E8
:101570000820FFF700FF00210820FFF7FCFE94E0A1
:10158000E448844208D101211020FFF7F4FE002135
:101590001020FFF7F0FE88E0DF48844208D10121E7
:1015A0002020FFF7E8FE00212020FFF7E4FE7CE08A
:1015B000DA48844208D101214014FFF7CFFE002110
:1015C0006014FFF7CBFE70E0D548844209D10121B9
:1015D000C804FFF7C3FE00214FF40020FFF7BEFE52
:1015E00063E0D048844209D101210805FFF7B6FE27
:1015F00000214FF48010FFF7B1FE56E0CA48844244
:1016000009D101214805FFF7A9FE00214FF4001080
:10161000FFF7A4FE49E0C548844208D101214020DB
:10162000FFF7A9FE00214020FFF7A5FE3DE0C048DE
:10163000844208D101218020FFF79DFE00218020F7
:10164000FFF799FE31E0BB48844208D101218015A3
:10165000FFF791FE0021A015FFF78DFE25E0B648AB
:10166000844209D101210804FFF778FE00214FF4DC
:101670008030FFF773FE18E0B048844209D10121A1
:101680004804FFF76BFE00214FF40030FFF766FEC1
:101690000BE0AB48844208D101218804FFF75EFECD
:1016A00000214FF48020FFF759FE10BD0022028870
:1016B000944B98420ED0994B98420BD0B0F1804F8A
:1016C00008D0914B984205D0904B984202D0904B55
:1016D000984204D14FF68F731A404B881A438D4BB2
:1016E000984207D08C4B984204D04FF6FF431A40E3
:1016F000CB881A4302808B8883850B880385814BB6
:1017000098420BD0854B984208D08B4B984205D01D
:101710008A4B984202D08A4B984201D10B7A0386B9
:1017200001238382704770B5002400220023058CBA
:101730004FF6FE7635400584028C8388048B4FF685
:101740008F752C40B51E2C400D882C43751E2A40E9
:101750000D892A434D882A436A4DA8420BD06F4D0C
:10176000A84208D0744DA84205D0744DA84202D0BA
:10177000734DA84213D14FF6F7752A404D892A437D
:101780004FF6FB752A408D882A434FF6FF652B40A4
:101790004FF6FF552B408D892B43CD892B438380FA
:1017A0000483CD888586028470BD70B50024002234
:1017B0000023058C4FF6EF7635400584028C838834
:1017C000048B48F6FF752C404FF6FF452C400D88E2
:1017D0004FF6FF7606EA05252C434FF6DF752A40C3
:1017E0000D8906EA05152A434D8806EA05152A43A0
:1017F000444DA84202D0494DA8421DD14FF67F75F5
:101800002A404D894FF6FF7606EA05152A434FF622
:10181000BF752A408D8806EA05152A434FF6FF3525
:101820002B404FF2FF752B408D8906EA85052B432F
:10183000CD8906EA85052B4383800483CD880587FF
:10184000028470BD70B5002400220023058C4FF681
:10185000FF6635400584028C8388848B4FF68F7534
:101860002C404FF6FC752C400D882C434FF6FF554D
:101870002A400D894FF6FF7606EA05252A434D8852
:1018800006EA05252A431F4DA84202D0234DA8424F
:101890001DD14FF2FF752A404D894FF6FF7606EABB
:1018A00005252A434FF6FF352A408D8806EA05258F
:1018B0002A434EF6FF752B404DF6FF752B408D8960
:1018C00006EA05152B43CD8906EA05152B438380CF
:1018D0008483CD888587028470BD70B50022002383
:1018E0000024058C4EF6FF7635400584038C8488F1
:1018F000828B48F6FF752A404FF6FF452A400D8837
:1019000020E00000002C01400004004000080040DE
:10191000000C004000100040001400400034014062
:10192000004C0140005001400054014000180040AC
:10193000001C0040002000400040014000440140E5
:10194000004801404FF6FF7606EA05252A434DF68A
:10195000FF752B400D8906EA05352B434D8806EAB5
:1019600005352B43B84DA84202D0B84DA84208D146
:101970004BF6FF752C408D894FF6FF7606EA8515EC
:101980002C4384808283CD88A0F84050038470BDAE
:10199000F0B50C461546002200210026078C4EF6B5
:1019A000FF7C07EA0C070784828B018C4FF6FF77D8
:1019B00007EA043640F6FF473A404FF6FF7707EA5A
:1019C00005273A434FF6FF7707EA03373A439E4F1E
:1019D000B8420ED09D4FB8420BD0B0F1804F08D026
:1019E0009B4FB84205D09B4FB84202D09A4FB842A5
:1019F00006D14DF6FF77394046F48057394305E06C
:101A000047F6FF57394044F48057394382830184B5
:101A1000F0BDF0B50C461546002200210026078CCB
:101A20004FF6FF6C07EA0C070784828B018C4FF698
:101A3000FF7707EA04264FF60C773A404FF6FF7718
:101A400007EA03172F433A437F4FB8420ED07F4F28
:101A5000B8420BD0B0F1804F08D07D4FB84205D0CE
:101A60007C4FB84202D07C4FB84206D14FF6FF57A8
:101A7000394046F48077394305E04FF2FF5739404B
:101A800044F48077394382830184F0BDF0B50C467D
:101A90001546002200210026078C4FF6EF7C07EA4E
:101AA0000C070784028B018C4FF6FF7707EA0416B8
:101AB00040F6FF473A404FF6FF7707EA03373A43CD
:101AC0004FF6FF7707EA05273A435F4FB8420ED03B
:101AD0005E4FB8420BD0B0F1804F08D05C4FB84297
:101AE00005D05C4FB84202D05B4FB84206D14FF6EA
:101AF000DF77394046F01007394305E04FF65F774E
:101B0000394044F01007394302830184F0BDF0B539
:101B10000C46154600220021068C4FF6FE773E400B
:101B20000684028B018C4FF60C7632407E1C06EA4E
:101B300003162E433243444EB0420ED0434EB042C1
:101B40000BD0B0F1804F08D0414EB04205D0414E8D
:101B5000B04202D0404EB04206D14FF6FD76314041
:101B600044F00106314305E04FF6F576314044F08C
:101B70000106314302830184F0BD21B1028842F0A5
:101B80000102028004E002884FF6FE731A400280D0
:101B900070471AB183890B43838102E083898B43A9
:101BA0008381704721B1028842F08002028004E004
:101BB00002884FF67F731A40028070470A46002160
:101BC000018B4FF6F77319401143018370470A46A2
:101BD0000021018B4FF2FF7319404FF6FF7303EAA8
:101BE00002231943018370470A460021818B4FF677
:101BF000F77319401143818370470A460021818B96
:101C00004FF2FF7319404FF6FF7303EA02231943A3
:101C10008183704701877047CA430282704730B59D
:101C20000246002000230024158A05EA0103958955
:101C300005EA010413B10CB1012000E0002030BD21
:101C4000CA43028270470000002C0140003401406A
:101C50000004004000080040000C00401B49014304
:101C60001B4A1160704770B5002100230F22C47811
:101C70000CB3174C246804F4E064C4F5E064210A52
:101C8000C1F10403CA40447804FA03F18478144093
:101C9000214309010F4C0678A155047804F01F0573
:101CA0000124AC4005786D114FF0E02606EB850568
:101CB000C5F8004109E0047804F01F050124AC4098
:101CC000054D0678761145F8264070BD0000FA05EE
:101CD0000CED00E000E400E080E100E02DE9F047D9
:101CE00086B005460E460024A24600BFA146002746
:101CF000B08900B100BF2F462C8A4CF6FF7004401B
:101D0000F08804432C82AC894EF6F3100440B0886E
:101D100031890843718908430443AC81AC8A4FF68A
:101D2000FF400440B0890443AC8201A8FFF79CFA4D
:101D30005B48874202D1DDF810A001E0DDF80CA07D
:101D4000A88910F4004F08D00AEBCA0000EB0A1073
:101D500031684900B0FBF1F807E00AEBCA0000EB7C
:101D60000A1031688900B0FBF1F86420B8FBF0F08C
:101D700004012009642101FB1089A88910F4004F97
:101D800008D0322000EBC900B0FBF1F000F00700F2
:101D9000044308E0322000EB09106421B0FBF1F0AD
:101DA00000F00F0004432C8106B0BDE8F08721B19C
:101DB000828942F40052828104E082894DF6FF73E9
:101DC0001A4082817047F0B50346002400260025A2
:101DD0000020A1F510676A3F00D100BF1846C1F38B
:101DE000421401F01F06012707FA06F5012C01D164
:101DF0000C3004E0022C01D1103000E014301AB194
:101E000007682F43076002E00768AF430760F0BD33
:101E100001468888C0F30800704701F40072B2F5EB
:101E2000007F00D100BFCA430280704770B50246F0
:101E30000024002300250020A1F510666A3E00D191
:101E400000BFC1F3421501F01F03012606FA03F398
:101E5000012D02D19689334006E0022D02D1168A67
:101E6000334001E0968A33400C12012606FA04F44E
:101E70001688344013B10CB1012000E0002070BD81
:101E800010B500220023A1F510646A3C00D100BF08
:101E90000A1201249440A3B2DC43048010BD000068
:101EA0000038014000212D498279002A3AD00A46A3
:101EB000126803689A430B461A600A1D1268036889
:101EC0009A430B1D1A60027911440A6803681A4389
:101ED0000A60224A0832126803689A431F4B08338B
:101EE0001A601A1D126803689A431C4B0C331A605F
:101EF0004279102A0ED11A1F126803681A43174B31
:101F000008331A601A1D126803681A43134B0C3306
:101F10001A600DE01149427911440A6803681A43B6
:101F20000A6005E0027911440A6803689A430A606E
:101F30007047014600200022084B1B6803EA01029B
:101F4000064B14331B680B4202D00AB1012000E09B
:101F500000207047014914310860704700040140B7
:101F600010B50022028802F441520B884C882343AA
:101F70008C882343CC8823430C8923434C892343F7
:101F80008C892343CC8923431A430280838B4FF2ED
:101F9000FF74234083830B8A038210BD21B1028822
:101FA00042F04002028004E002884FF6BF731A40FC
:101FB00002807047818170470146888970470246D8
:101FC000002013890B4201D0012000E0002070475F
:101FD00001460020084A106800F0380008431060ED
:101FE00070470549096821F01001034A1160114644
:101FF0000968014311607047002002400CB50020C1
:10200000019000904848006840F4803046490860DC
:1020100000BF4548006800F4003000900198401C63
:102020000190009818B90198B0F5A06FF1D13E4821
:10203000006810F4003F02D00120009001E0002071
:1020400000900098012842D13848006840F0100004
:10205000364908600846006820F00300086008461A
:10206000006840F0020008602F4840682E49486030
:102070000846406848600846406840F48060486010
:102080000846406820F47C1048600846406840F4E8
:10209000E81048600846006840F08070086000BFA3
:1020A0002148006810F0007FFAD01F48406820F0F7
:1020B00003001D4948600846406840F0020048603F
:1020C00000BF1948406800F00C000828F9D10CBD89
:1020D00010B5FFF793FF10BD10B51348006840F02E
:1020E00001001149086008464068114908400E493E
:1020F0004860084600680F4908400B4908600846D8
:10210000006820F4802008600846406820F4FE0043
:1021100048604FF41F008860FFF7DAFF4FF000605F
:102120000549086010BD0000001002400020024078
:102130000000FFF8FFFFF6FE08ED00E0F0B480EAD3
:102140000102D40F4200B2EB410F02D20246084610
:1021500011464A0042D0C30DDDB2C1F3C752AD1AD9
:10216000202D35DAC1F3160141F4000204B15242C8
:10217000C5F1200602FA06F12A411044B3EBD05F04
:1021800023D0C4B1012DA0EBC35009DCF0BC4FF04B
:10219000004202EAC35200F50000DBB200F0D2BAFE
:1021A000400000F1807000EBC350A0F1807040EA65
:1021B000D170490009E0490841EAC071A0EBC35061
:1021C00000F50000400800EBC350F0BC00F0B1BACD
:1021D0006142012202EB4101001BF6E7F0BC7047AF
:1021E00081F00041AAE780F00040A7E780EA010201
:1021F00010B502F00043400026D04A0023D04FEA39
:10220000106101EB1261C0F35600C2F3560240F4B4
:10221000000042F40002A0FB0220A1F17F014FEA7E
:102220000040140401D000F1010050EA124001D432
:102230004000491EC2B20C0604EBD010401C4008FE
:10224000802A02D003E0002010BD20F00100002908
:1022500000DA0020184310BD30B480EA010202F019
:10226000004530F0004221F0004015D0A0B1C0F38D
:10227000C753C2F3C754C2F31601C0F31600E41AE1
:1022800041F4000140F400027D34914201D3641C0A
:1022900000E04900002C02DA30BC002070474FF407
:1022A00000000023914201D3891A034340084FEAFA
:1022B0004101F7D151B1914202D14FF0004105E007
:1022C00002D24FF0010101E06FF0010103EBC450B5
:1022D000284430BC00F02DBA2DE9FE4F804681EA3B
:1022E0000300C00F0C46009021F0004123F0004590
:1022F000B8EB0200A94105D24046214690461C4653
:102300000B46024623F00040104304D140462146CC
:1023100003B0BDE8F08F270DC7F30A00C3F30A51DD
:102320000290401A0190402866DAC3F3130040F48B
:10233000801B0098924620B10023D2EB030A63EB86
:102340000B0B01985946C0F14002504600F0C0F90D
:1023500006460D4650465946019A00F0D8F910EB52
:1023600008006141002487EA115284EAE7731A43A6
:102370003BD0009A3AB3019A012A4FEA075210DC87
:10238000001B61EB02014FF0004202EA0752CDE967
:102390000042001C41F5801132462B4600F00CFA39
:1023A000B6E7001B61EB0201001C41F58013001829
:1023B0005B412018A2F5001747EB030140EAD570F6
:1023C000B6196D4111E06D084FEA360645EAC07551
:1023D0004FEA0752001B61EB0201001C41F580111E
:1023E00049084FEA30000019514132462B4603B0EC
:1023F000BDE8F04F00F0D3B900980122400000235F
:10240000D0EB020263EBE073009821464FEAE074E0
:10241000B8EB000061EB0401E9E783F000435BE700
:1024200081F0004158E72DE9FE4F81EA030404F0F2
:10243000004421F0004100944FF0000B23F00043D2
:1024400050EA010402D052EA030404D100200146FC
:1024500003B0BDE8F08FC3F30A54C1F30A552C440E
:10246000A4F2F3340194A0FB0254C1F3130141F42C
:102470008011C3F3130343F4801301FB024400FBF8
:10248000034E840A970A44EA815447EA8357A4FB1F
:10249000076802958D0A05FB07854FEA932C04FB1C
:1024A0000C542705029D4FEA065847EA1637B5EB4C
:1024B00008056EEB070C870E920E47EA811742EA79
:1024C0008312A7FB0201B6EB0B0164EB00042B0D9A
:1024D00043EA0C335E1844EB1C50DA465146E7FBE6
:1024E0000201C5F313044FEA0B3343EA14534FEAD6
:1024F0000432019C43EA0603A4F10C040294009CFC
:10250000CDE900B400F058F9A2E72DE9F04D81EAD9
:10251000030404F0004B21F0004514464FF0000A7C
:1025200023F0004150EA050220D054EA01021DD0F8
:10253000C5F30A570246C5F31303C1F31300C1F3F1
:102540000A5640F4801543F48013A7EB0608101BCD
:10255000D64608F2FD3873EB050002D308F10108F6
:1025600001E092185B41B8F1000F03DA0020014648
:10257000BDE8F08D00204FF48011064684460EE041
:10258000171B73EB050705D3121B63EB050306430B
:102590004CEA010C49084FEA300092185B4150EABE
:1025A0000107EDD152EA030012D082EA040083EA67
:1025B0000501084303D100224FF0004308E0101B3F
:1025C000AB4102D20122002302E06FF0010253105E
:1025D0001AEB06004CEB085110EB0A0041EB0B0123
:1025E000BDE8F04D00F0DBB80EB5C10F80EAE07039
:1025F0000844CA07002140F233438DE80E000A4622
:102600000B4600F0D9F803B000BD70B5C1F30A5213
:1026100001F000450024C1F3130140F2FF3341F4FF
:1026200080119A4201DA002070BD40F233439A4291
:10263000A2F2334203DC524200F059F800E090402D
:102640002C43F1D0404270BD00F0004230F0004019
:102650000AD0C10D01F56071C0F3160042EA0151C4
:10266000C20840071143704700200146704701F03F
:10267000004330B421F0004150EA010206D00A0DB7
:10268000A2F56072C1F31301002A02DC30BC002005
:102690007047440F44EAC104C100E01830BC00EBAD
:1026A000C25000F046B80000002801DBC0F1004035
:1026B000002901DBC1F1004181427047002801DBA4
:1026C000C0F10040002901DBC1F1004188427047A0
:1026D000202A04DB203A00FA02F1002070479140E2
:1026E000C2F1200320FA03F3194390407047202AD7
:1026F00004DB203A21FA02F00021704721FA02F3AC
:10270000D040C2F120029140084319467047202A68
:1027100006DBCB17203A41FA02F043EAE07306E009
:1027200041FA02F3D040C2F1200291400843194619
:1027300070470029A8BF7047401C490008BF20F01F
:102740000100704710B4B0FA80FC00FA0CF050EAB7
:10275000010404BF10BC704749B1CCF1200421FA38
:1027600004F411FA0CF118BF012121430843A3EB33
:102770000C01CB1D0106000A002BBEBF002010BCBF
:10278000704700EBC35010440029A4BF10BC704731
:10279000401C490008BF20F0010010BC704710B574
:1027A000002B08DA401C41F1000192185B411A43EA
:1027B00001D120F0010010BD2DE9F04D92469B465D
:1027C00011B1B1FA81F202E0B0FA80F22032904603
:1027D000FFF77EFF04460F4640EA0A0041EA0B017C
:1027E00053465A46084303D120463946BDE8F08D8A
:1027F000114653EA010015D0C8F140025046FFF7D8
:1028000076FF05460E46504659464246FFF760FFA2
:10281000084301D0012000E00020054346EAE076AD
:102820002C4337430A984FEA4453A0EB08004FEA81
:10283000D4240A304FF0000244EA47544FEAD72527
:1028400002D500200146D1E7010510196941DDE9F3
:10285000084500196941BDE8F04DA0E7064C074D59
:1028600006E0E06840F0010394E807009847103460
:10287000AC42F6D3FDF760FC0429000824290008C7
:1028800070B501EB020410F8015B15F0070301D1EC
:1028900010F8013B2A1106D110F8012B03E010F8C3
:1028A000016B01F8016B5B1EF9D12B0705D40023E6
:1028B000521E0FD401F8013BFAE710F8013B02F178
:1028C0000202A1EB030303E013F8015B01F8015BD3
:1028D000521EF9D5A142D6D3002070BD02E008C82F
:1028E000121F08C1002AFAD170477047002001E08A
:1028F00001C1121F002AFBD17047FFFFFFFFFFFF3E
:10290000FFFFFFFF2429000800000020380100001D
:10291000802800086C2900083801002048040000C5
:10292000EC280008C125CDCCCC3EE38040DAA010D5
:1029300001160A1D090401344BE505045AE9086132
:102940004318471D0AD7A33CAC0C223F08019A014B
:102950001C5A6402A12D0102030404100906070891
:0C2960000902040608ACA24A041C291855
:0400000508000131BD
:00000001FF
