:020000040800F2
:100000008005002045010008510800085308000839
:10001000570800085B0800085F080008000000009F
:10002000000000000000000000000000630800085D
:10003000650800080000000067080008E50C0008DB
:100040005F0100085F0100085F0100085F01000810
:100050005F0100085F0100085F0100085F01000800
:100060005F0100085F0100085F0100085F010008F0
:100070005F0100085F0100085F0100085F010008E0
:100080005F0100085F0100085F0100085F010008D0
:100090005F0100085F0100085F0100081D090008FA
:1000A0005F0100085F0100085F0100085F010008B0
:1000B00035090008653B00085F0100085F01000882
:1000C0005F0100085F0100085F0100085F01000890
:1000D0005F010008690800085F010008B108000816
:1000E000071000085F0100085F0100085F010008B9
:1000F0005F0100085F0100085F0100085F01000860
:100100005F0100085F0100085F0100085F0100084F
:100110005F0100085F0100085F0100085F0100083F
:100120005F0100085F0100085F0100085F0100082F
:10013000DFF80CD004F0F2F800480047690100082D
:10014000800500200648804706480047FEE7FEE796
:10015000FEE7FEE7FEE7FEE7FEE7FEE7FEE7FEE777
:100160000D3A0008310100080EB503F04FFC00F015
:100170006CFE00F06FFD00F011FF00F007FD00F0D5
:1001800059FF01F071F901F097F901F0C7F900F09A
:10019000D7FD00F014FE41F61F4140F2F31003F0CA
:1001A000B5FCC82000F08CFD17E3FE48007800285D
:1001B000FAD00020FB490870FB48016800914168B3
:1001C00001910189ADF80810807A8DF80A00F6488F
:1001D00000785528E8D1F4484078512804D05228B6
:1001E00063D053287ED1C3E09DF802109DF8032010
:1001F00041EA022108B203F031FF80460022EB4BB6
:1002000003F0AFFE06460022E94B03F038FE044639
:1002100003F08DFFE74908609DF804109DF8052064
:1002200041EA022108B203F019FF80460022DF4BA9
:1002300003F097FE06460022DD4B03F020FE044645
:1002400003F075FFDB4948609DF806109DF8072014
:1002500041EA022108B203F001FF80460022D34B9D
:1002600003F07FFE06460022D14B03F008FE044651
:1002700003F05DFFCF4988609DF808109DF80920C4
:1002800041EA022108B203F0E9FE80460022CA4B8F
:1002900003F067FE06460022C84B03F049FD044602
:1002A00003F045FFC649086000BF9DF802109DF8A5
:1002B000032041EA022108B203F0D0FE06460022E4
:1002C000BA4B03F04EFE80460022BE4B03F0D7FD32
:1002D000044603F02CFFBC4908609DF804109DF80B
:1002E000052000E0A5E041EA022108B203F0B6FED5
:1002F00080460022AD4B03F034FE06460022B14B8F
:1003000003F0BDFD044603F012FFAF4948609DF8BD
:1003100006109DF8072041EA022108B203F09EFE74
:1003200006460022A14B03F01CFE80460022A54B8E
:1003300003F0A5FD044603F0FAFEA34988609DF88A
:1003400008109DF8092041EA022108B203F086FE58
:1003500080460022984B03F004FE06460022974B8D
:1003600003F0E6FC044603F0E2FE9549086061E014
:100370009DF802109DF8032041EA022108B203F023
:100380006DFE80460022894B03F0EBFD06460022FD
:100390008E4B03F074FD044603F0C9FE8C490860DF
:1003A0009DF804109DF8052041EA022108B203F0EF
:1003B00055FE064600227D4B03F0D3FD8046002209
:1003C000824B03F05CFD044603F0B1FE80494860B7
:1003D0009DF806109DF8072041EA022108B203F0BB
:1003E0003DFE80460022714B03F0BBFD0646002215
:1003F000764B03F044FD044603F099FE744988608F
:100400009DF808109DF8092041EA022108B203F086
:1004100025FE06460022684B03F0A3FD0446002299
:10042000664B03F085FC804603F081FE644908605A
:1004300000E000BF00BF6748006803F00FFE804681
:1004400000224FF0804303F014FD06460022624B69
:1004500003F015FD044603F06AFE604908605D483C
:10046000006800280FDB5B48006807280BDA594852
:10047000006803F0E5FD044659480168204603F092
:10048000E1FB58490860584800F0C7FF5749087019
:100490005549487803F0F3FD06460022544B03F01B
:1004A00060FD044603F043FE524908604E498878D7
:1004B00003F0E5FD064600224D4B03F052FD0446D5
:1004C00003F035FE4C4908604749C87803F0D7FD72
:1004D00006460022464B03F044FD044603F027FE87
:1004E000464908604049087903F0C9FD06460022E4
:1004F0003F4B03F0BEFC044603F019FE3849086088
:100500003949487903F0BBFD064600223C4B03F015
:10051000B0FC81F00041044603F009FE394908604F
:100520003149887903F0ABFD06460022364B03F0D3
:10053000A0FC044603F0FBFD3449086024494868E8
:100540003349096803F026FB044624480168204625
:1005500003F072FB2F4908602F4801682F4800689C
:1005600003F018FB05464FF0804103F0A1FB044661
:1005700028480168204603F062FB294908602949A0
:100580002448006803F0FAFD5AD227492148006840
:1005900003F0EAFD54D24FF07E512148006803F089
:1005A000E3FD43E0F80000205C0100200000E04093
:1005B00000003040380100200040754000204240DB
:1005C000E000002000409F40440100200080664081
:1005D000500100200C010020000008400000002015
:1005E0001C000020D4000020A8000020C90000202A
:1005F00000002440100000201800002014000020FB
:10060000000049402800002000004E40D00000209B
:10061000200000206C0000202C0000207000002032
:10062000780000200000A0C00000A04008D26B4964
:100630006B48006803F0A2FD02D200206849086000
:1006400068496948006803F099FD18D86749664809
:10065000006803F089FD12D26148016864480068AF
:1006600003F0F0FA0446604801686248006803F04D
:10067000E9FA0546214603F0DFFA5F4908605F4961
:100680005948006803F07AFD27D256495648006859
:1006900003F06AFD21D2524801685548006803F012
:1006A000D1FA064653480168504803F0CBFA074692
:1006B0004E494D48006803F06DFA80465048016885
:1006C000404603F0BFFA0546394603F0B5FA044642
:1006D000314603F0B1FA484908604449424800688D
:1006E00003F04CFD27D847493F48006803F03CFD24
:1006F00021D23B4801683E48006803F0A3FA064651
:100700003C480168394803F09DFA074637493648A6
:10071000006803F091FA804639480168404603F0CA
:1007200091FA0546394603F035FA0446314603F09E
:1007300083FA31490860344801683448006803F09E
:1007400029FA33490860334801682B48006803F0F0
:1007500021FA8346304903F06FFA824603F0D4FC55
:1007600006462E4A2E4B03F08AFB04462D4A2E4B9A
:1007700003F0DEFA804603F08FFC2C490860244821
:10078000006803F0C1FC80460022294B03F0D0FA38
:100790000646284A284B03F072FB0446214A52427F
:1007A000264B03F0C5FA824603F076FC2449086024
:1007B0001E48008881B2234802F012F920480088C0
:1007C00081B24FF0804002F00DF91F4800681F49C8
:1007D0000860054800681C490860E6E4000080BF26
:1007E00078000020000020C16C00002000002041A3
:1007F0001800002010000020600000200000C8C188
:10080000140000200000C841D4000020D0000020C7
:1008100064000020280000200000904197900F7A8B
:10082000364B22401F85EB51B8DD954080000020FB
:1008300000002040560E2DB29DEF27C0471D954069
:100840009000002000080040700000202C000020D4
:10085000704700BFFEE700BFFEE700BFFEE700BF36
:10086000FEE770477047704710B540F22551444885
:1008700002F028FBD8B140F22551414802F04CFB70
:100880003F48001D0088C4B23E483F49097844549F
:100890003D480078401C3C49087008460078042810
:1008A00005D101203949087000203749087010BD72
:1008B00010B540F22551364802F004FB38B33448F5
:1008C00002F080FA3349344A12788854324800786A
:1008D00020B908460078552800D010BD2E48007871
:1008E000401C2D490870084600780B280FD12B4872
:1008F00028490A6802604A6842600A890281897A46
:10090000817200202449087001202549087040F2B6
:1009100025511F4802F000FB00BFDEE710B5202084
:1009200002F088FB28B101201E490870202002F047
:1009300092FB10BD10B50121880702F080F8F0B1DC
:100940000121880702F08CF84FF08040808C44F63B
:100950002061884206DD14480078401E40B21249EA
:1009600008700CE04FF08040808C42F21071884299
:1009700005DA0D480078401C40B20B49087010BDE4
:1009800000380140EE000020F2000020ED000020C1
:100990000048004072010020EC0000205C010020B3
:1009A000F8000020CA0000209400002008B50121B2
:1009B000084600F044FF0121042000F033FF072027
:1009C000ADF8000018208DF8030003208DF8020018
:1009D0006946974800F0EEFF08BD00B587B044F6C1
:1009E0001F60ADF814004720ADF810000020ADF8EE
:1009F0001600ADF8120004A94FF0804001F0FAF99A
:100A00006020ADF800000120ADF8020089480088A0
:100A1000ADF806000020ADF8080069464FF08040B0
:100A200001F025FA0821C80601F070FE0120ADF89A
:100A3000020081480088ADF8060069464FF080400A
:100A400001F057FA0821C80601F069FE0120ADF84F
:100A500002007A480088ADF8060069464FF08040F1
:100A600001F094FA0821C80601F066FE0120ADF8F5
:100A7000020073480088ADF8060069464FF08040D8
:100A800001F0CFFA0821C80601F05FFE01218807B6
:100A900001F00CFE0121880701F008FD07B000BD40
:100AA00008B50121042000F0CAFE0121082000F051
:100AB000B9FE4FF47070ADF8000018208DF80300F7
:100AC00003208DF8020069465E4800F073FF08BD00
:100AD00000B587B044F61F60ADF814004720ADF8AC
:100AE00010000020ADF81600ADF8120004A9564819
:100AF00001F080F96020ADF800000120ADF802009F
:100B00004C480088ADF806000020ADF808006946A2
:100B10004D4801F0ACF908214B4801F0F7FD0120E8
:100B2000ADF8020044480088ADF806006946464822
:100B300001F0DFF90821444801F0F1FD0120ADF892
:100B400002003E480088ADF8060069463E4801F0C4
:100B50001DFA08213C4801F0EFFD0120ADF802002C
:100B600037480088ADF806006946374801F059FA61
:100B70000821354801F0E9FD0121334801F096FDD7
:100B80000121314801F092FC07B000BD10B5FFF71C
:100B90000DFFFFF722FFFFF783FFFFF799FF10BD5F
:100BA0002DE9F14F88B04FF0834006904FF0030BD2
:100BB0004FF47A7A089803F0A7FACDE90401584671
:100BC00003F047FA804603F09FFACDE9000106984A
:100BD00003F09AFA804642460B4600201B4903F078
:100BE000C0F90646DDE9002303F0BBF9CDE90201B7
:100BF000DDE9042303F0B5F9044603F06CFA1FFAAB
:100C000080FA1348A0F800A050460AEBD0714910B2
:100C10000F4A083211800AEBD0714910121D118061
:100C2000ABF101000A49091F088009B0BDE8F08F47
:100C300000080140FA000020FC000020FE00002017
:100C400000010020000C01400008004000F915419F
:100C50002C04004030B5284800684FF47A72B0FB8D
:100C6000F2F1B1F1807F01D301201DE021F07F403E
:100C7000401E4FF0E022506150170F22002807DA83
:100C800013071D0E1D4B00F00F04241F1D5503E01C
:100C900013071C0E1A4B1C5400BF00204FF0E0221B
:100CA000906107201061002008B100BFFEE74FF0FF
:100CB000E020006920F001004FF0E021086130BD24
:100CC00001B51049009808604FF0E020006940F03D
:100CD00001004FF0E021086100BF0A4800680028C9
:100CE000FBD108BD0748006820B106480068401ED7
:100CF00004490860704700002401002018ED00E05E
:100D000000E400E004010020014600BF704770B518
:100D100004460D4600BF6D48008810F0400FFAD021
:100D2000E0B26A49091D0880E1B2694802F046F85C
:100D300000BF6748008810F0800FFAD0204670BDD1
:100D400000B585B0012144F2040000F06BFD4FF4C2
:100D50000070ADF8100018208DF8130003208DF8F6
:100D6000120004A95B4800F025FE4FF48060ADF846
:100D7000100004208DF8130004A9564800F01AFE54
:100D80004FF4165000900020ADF80400ADF80600B6
:100D9000ADF80800ADF80C000C20ADF80A0069466B
:100DA0004A4801F012FF012240F22551474801F064
:100DB000A4FF0121454801F094FF05B000BD00B536
:100DC00085B00121880400F03AFD0121082000F0DF
:100DD00029FD4FF48060ADF8100018208DF8130045
:100DE00003208DF8120004A93B4800F0E3FD4FF406
:100DF0000060ADF8100004208DF8130004A93648F7
:100E000000F0D8FD4FF4E13000900020ADF8040070
:100E1000ADF80600ADF80800ADF80C000C20ADF8F8
:100E20000A0069462A4801F0D0FE012240F225510D
:100E3000274801F062FF0121254801F052FF4021BF
:100E4000234802F036F805B000BD08B54FF4A060A5
:100E500001F00AFE25208DF8000001208DF8010028
:100E600000208DF8020001208DF80300684601F093
:100E700000FE27208DF8000001208DF801000220DF
:100E80008DF8020001208DF80300684601F0F1FDA5
:100E90001D208DF8000000208DF8010001208DF844
:100EA00002008DF80300684601F0E3FD17208DF87D
:100EB000000000208DF8010001208DF802008DF85F
:100EC0000300684601F0D5FD08BD00000038014070
:100ED0000048004000080140000C01400EB501210F
:100EE000092000F09FFC4FF48070ADF8080004204A
:100EF0008DF80B0002A94C4800F05CFD4FF4007027
:100F0000ADF8080004208DF80B0002A9464800F057
:100F100051FD4FF40050ADF8080004208DF80B008F
:100F200002A9414800F046FD0821012000F056FECC
:100F30004FF48070009000208DF8040008208DF898
:100F4000050001208DF80600684602F00DF8092121
:100F5000012000F043FE4FF40070009000208DF857
:100F6000040008208DF8050001208DF80600684671
:100F700001F0FAFF0D21012000F030FE4FF4005087
:100F8000009000208DF8040008208DF80500012055
:100F90008DF80600684601F0E7FF0EBD1FB5012180
:100FA000084600F03FFC0121102000F03BFC4FF40C
:100FB0008060ADF80C0004208DF80F0003A91B48D9
:100FC00000F0F8FC0A21022000F008FE4FF48060D7
:100FD000019000208DF8080008208DF809000120FC
:100FE0008DF80A0001A801F0BFFF28208DF800004D
:100FF00001208DF801008DF802008DF8030068468D
:1010000001F037FD1FBD10B54FF4806002F012F8FB
:1010100040B107480068401C054908604FF48060F3
:1010200002F019F810BD0000000C01400010014052
:10103000080100200EB50121022000F000FC12483A
:1010400000F004FE44F62060ADF804004720ADF83F
:1010500000000020ADF80600ADF8020069460A481D
:1010600000F0C8FE0121084801F0E6FC012211460B
:10107000054801F036FA0121034801F017FA012171
:10108000022000F0DCFB0EBD0004004008B5012189
:101090001C2000F0C7FBA020ADF8000018208DF840
:1010A000030003208DF802006946F74800F082FC37
:1010B0004020ADF8000048208DF803006946F24852
:1010C00000F078FC1020ADF800008DF8030003203C
:1010D0008DF802006946ED4800F06CFC1020ADF878
:1010E00000008DF8030003208DF802006946E648F1
:1010F00000F060FC2020ADF8000048208DF80300CF
:101100006946E24800F056FC0020E14908604FF0D3
:101110000100E049C1F8900108BD1CB5052102207D
:1011200000F05CFD2020009000208DF804000C20D1
:101130008DF8050001208DF80600684601F014FFC7
:101140001CBD10B586B004460121080300F06AFBFF
:101150000020ADF804004FF48270ADF806000020C6
:10116000ADF80800ADF80A00ADF80C004FF40070BF
:10117000ADF80E003820ADF810000020ADF81200D8
:101180000720ADF8140001A9204601F093FF0121CA
:10119000204602F034F806B010BD70B505460C4686
:1011A000BD4800884FF6C7710840BB490880084613
:1011B0000088204308800121284602F020F870BDF5
:1011C00010B5044600BF0221B34802F09CF8002885
:1011D000F9D02146B04802F043F800BF0121AE48E3
:1011E00002F091F80028F9D0AB4802F03BF8C0B209
:1011F00010BD70B505460C460020A8490860284679
:10120000FFF7DEFF06462046FFF7DAFF0120A1497F
:10121000C1F89001304670BD70B5044600209F496A
:1012200008602046FFF7CCFFFF20FFF7C9FF054607
:1012300001209849C1F89001284670BD2DE9F04180
:1012400007460D4616460020944908603846FFF7C9
:10125000B7FF8046002405E0FF20FFF7B1FF2855C7
:10126000601CC4B2B442F7DB01208C4908604046E0
:10127000BDE8F0812DE9F04107460C4615460020F7
:10128000864908603846FFF79BFF8046002605E048
:1012900014F8010BFFF794FF701CC6B2AE42F7DBE7
:1012A00001207E4908604046BDE8F08110B5072066
:1012B000FFF7B2FF0446204610BD1CB578A103C954
:1012C000CDE9000110217448FFF767FF0522694648
:1012D0003020FFF7CFFF052269461020FFF7AEFF51
:1012E000002406E01DF80400A52800D003E0601CDF
:1012F000C4B2052CF6DB00BF052C01D001201CBDBB
:101300000020FCE710B50020614908604FF005029D
:1013100065494FF03000FFF7ADFF052263492A20F1
:10132000FFF7A8FF01212120FFF763FF0121222001
:10133000FFF75FFF1A212420FFF75BFF0021252024
:10134000FFF757FF0F212620FFF753FF0E21202024
:10135000FFF74FFF01205649C1F8900110BD10B5AD
:1013600000204B4908604FF020014FF03100FFF79B
:1013700040FF05224D492A20FFF77CFFFF21E22094
:10138000FFF737FF01212120FFF733FF0121222042
:10139000FFF72FFF00212520FFF72BFF0F2126202D
:1013A000FFF727FF0F212020FFF723FF01204049EF
:1013B000C1F8900110BD70B5054610213648FFF701
:1013C000ECFE0020324908604FF0200229464FF021
:1013D000A000FFF74FFF01203549C1F8900100BF81
:1013E000344800680028FBD14FF00700FFF714FFD6
:1013F000044621462720FFF7FCFE14F0100F05D00D
:10140000FF21E120FFF7F5FE102070BD14F0200F42
:1014100001D02020F9E7FF20F7E770B5044610213E
:101420001D48FFF7BAFE0720FFF7F6FE05462946DE
:101430002720FFF7DEFE15F0400F13D000201449DF
:1014400008604FF0200221464FF06100FFF7F6FEE2
:10145000FF21E220FFF7CDFE01201549C1F89001E0
:10146000002070BD0120FCE710B50224FFF70EFE3E
:101470000948FFF766FEFFF720FF0446FFF74DFE21
:10148000FFF76DFF10BD0000000801400010014093
:10149000900121420000224200300140900122428E
:1014A000A5A5A5A5A5000000BA430008BF430008F4
:1014B000000021421401224210B500F049F84FF417
:1014C000803000F065F800F0A2F80446012C24D129
:1014D000102001F063FF022001F04CFF002000F01B
:1014E000DCF8002000F0EBF8A00200F0DFF84FF489
:1014F000E011200400F0B4F8012000F0BDF800BFB6
:10150000392000F068F80028FAD0022000F0B7F87F
:1015100000BF00F0BDF80828FBD110BD08B50121BF
:10152000082000F07FF90121202000F07BF90F2036
:10153000ADF8000010208DF8030003208DF80200A4
:101540006946024800F036FA08BD00000014014068
:10155000DD48006840F00100DB490860084640684B
:10156000DA490840D849486008460068D849084028
:10157000D54908600846006820F4802008600846C5
:10158000406820F4FE0048604FF41F0088607047F8
:10159000CD49096821F48031CB4A116011460968B0
:1015A00021F480211160B0F5803F03D0B0F5802F89
:1015B0000ED106E0C449096841F48031C24A116085
:1015C00007E0C149096841F4A021BF4A116000E069
:1015D00000BF00BF704710B5014600220023002065
:1015E0004A11012A02D1B84C236806E0022A02D12E
:1015F000B54C236A01E0B44C636A01F01F02012478
:1016000094401C4201D0012000E0002010BD38B5FC
:10161000002000900024002500BF3120FFF7DBFFF1
:1016200005460098401C00900098B0F5A06F01D0CE
:10163000002DF2D03120FFF7CEFF08B1012400E0E9
:101640000024204638BD014600209F4A106820F043
:10165000F80040EAC100106070479E49086070477A
:1016600002460020984B586820F47C1042EA01039F
:101670001843954B58607047964908667047014675
:101680000020914A506820F00300084350607047E2
:101690008D48406800F00C007047014600208A4ADF
:1016A000506820F0F0000843506070470146002069
:1016B000854A506820F4E060084350607047014656
:1016C0000020814A506820F4605040EAC100506018
:1016D000704729B17C4A527A02437B4B5A7204E02C
:1016E000794A527A8243784B5A7270477A49086035
:1016F000704701460020744A506820F44040084377
:10170000506070470021754A11706F4A82F82010AE
:10171000012802D0042808D103E001216F4A11708A
:1017200004E005216D4A117000E000BF00BF704762
:101730006B49086070476449096A0143624A116253
:101740007047674944390860704730B5002100226E
:10175000002400235C4D6D6805F00C0121B10429C3
:1017600005D0082923D105E05E4D056022E05D4DDE
:1017700005601FE0544D6D6805F47012524D6D68A0
:1017800005F48034022505EB92421CB9564D5543B1
:1017900005600BE04C4D6D6815F4003F03D0524DD1
:1017A0005543056002E04F4D5543056002E04D4D45
:1017B000056000BF00BF444D6D6805F0F0010909E8
:1017C0004A4D6B5C0568DD4045603F4D6D6805F432
:1017D000E061090A454D6B5C4568DD4085603A4D26
:1017E0006D6805F46051C90A404D6B5C4568DD4089
:1017F000C560354D6D6805F44041890B3C4D6B5C0F
:10180000C568B5FBF3F5056130BD29B12E4A5269B3
:1018100002432D4B5A6104E02B4A526982432A4B02
:101820005A61704729B1284A92690243264B9A614E
:1018300004E0254A92698243234B9A61704729B19B
:10184000214AD2690243204BDA6104E01E4AD26980
:1018500082431D4BDA61704729B11B4AD2680243AB
:10186000194BDA6004E0184AD2688243164BDA60FA
:10187000704729B1144A12690243134B1A6104E0FC
:10188000114A12698243104B1A617047144940395A
:10189000086070470F49C86470470B49C8717047AA
:1018A0000948406A40F08070074948627047014625
:1018B0000020054A92680A4201D0012000E0002081
:1018C0007047014988727047001002400000FFF81D
:1018D000FFFFF6FE00004242D800424220100240C4
:1018E0008004424200127A0000093D0010010020ED
:1018F0002001002010B50446CA48844208D10121C5
:101900000420FFF7A9FF00210420FFF7A5FF46E010
:10191000C548844208D101210820FFF79DFF00211E
:101920000820FFF799FF3AE0C048844208D101211E
:101930001020FFF791FF00211020FFF78DFF2EE010
:10194000BB48844208D101212020FFF785FF0021F8
:101950002020FFF781FF22E0B648844208D1012110
:101960004020FFF779FF00214020FFF775FF16E0C8
:10197000B148844208D101218020FFF76DFF00218A
:101980008020FFF769FF0AE0AC48844207D10121BB
:101990008015FFF761FF0021A015FFF75DFF10BD67
:1019A00010B501210846FFF757FF00210120FFF77E
:1019B00053FF10BD2DE9F04102460025002600200E
:1019C00000230024002791F803C00CF00F0591F8C4
:1019D00003C01CF0100F03D091F802C04CEA0505BB
:1019E00091F800C0BCF1000F31D0146800202BE04A
:1019F0004FF0010C0CFA00F3B1F800C00CEA03063A
:101A00009E4220D183004FF00F0C0CFA03F7BC4329
:101A100005FA03FC4CEA040491F803C0BCF1280F5A
:101A200006D14FF0010C0CFA00FCC2F814C00AE019
:101A300091F803C0BCF1480F05D14FF0010C0CFA2E
:101A400000FCC2F810C0401C0828D1D31460B1F8C3
:101A500000C0BCF1FF0F34DD546800202EE000F11F
:101A6000080C4FF0010808FA0CF3B1F800C00CEABA
:101A700003069E4221D183004FF00F0C0CFA03F7AE
:101A8000BC4305FA03FC4CEA040491F803C0BCF122
:101A9000280F05D100F1080C08FA0CF8C2F81480E0
:101AA00091F803C0BCF1480F07D100F1080C4FF0CA
:101AB000010808FA0CF8C2F81080401C0828CED3A0
:101AC0005460BDE8F0814FF6FF7101800221817002
:101AD0000421C17070470246002093680B4201D078
:101AE000012000E0002070470146886880B27047FE
:101AF00002460020D3680B4201D0012000E0002004
:101B000070470146C86880B2704701617047416103
:101B100070470AB1016100E041617047C1607047E0
:101B20004FF480320A4382618161826182698269F5
:101B3000704702460020424B18684FF680731840E9
:101B400040EA021008433E4B186070473D49C861A7
:101B50007047F0B50A46002300240021002500F05C
:101B60000046B6F1004F02D1354EF16901E0344E26
:101B70007168C0F3034583B200F44016B6F5401F08
:101B800008D121F070612E4E766826F070662C4FD9
:101B90007E6012E000F48016B6F5801F06D10326A1
:101BA00006FA05F4A14341F0706106E0460D3601E6
:101BB00003FA06F6B14341F0706122B1460D3601D9
:101BC00003FA06F6314300F00046B6F1004F02D1A9
:101BD0001B4EF16101E01A4E7160F0BD30B500227C
:101BE0008B071C0F0F2303FA04F2154B08338C10DC
:101BF00053F824309343124C08348D1044F82530A8
:101C000023468C1053F824308C07240F00FA04F478
:101C100023430B4C08348D1044F8253030BD0A495D
:101C20000860704700080140000C014000100140AE
:101C30000014014000180140001C01400020014038
:101C40000000014000002042DC00204210B50446A4
:101C5000FE48844208D10121C014FFF7FDFD002198
:101C6000E014FFF7F9FDC4E0B4F1804F08D1012181
:101C70000846FFF7FEFD00210120FFF7FAFDB8E05E
:101C8000F348844208D101210220FFF7F2FD002130
:101C90000220FFF7EEFDACE0EE48844208D10121BE
:101CA0000420FFF7E6FD00210420FFF7E2FDA0E09D
:101CB000E948844208D101210820FFF7DAFD00211C
:101CC0000820FFF7D6FD94E0E448844208D10121C2
:101CD0001020FFF7CEFD00211020FFF7CAFD88E09D
:101CE000DF48844208D101212020FFF7C2FD0021F6
:101CF0002020FFF7BEFD7CE0DA48844208D10121B4
:101D00004014FFF7A9FD00216014FFF7A5FD70E066
:101D1000D548844209D10121C804FFF79DFD002167
:101D20004FF40020FFF798FD63E0D048844209D1CA
:101D300001210805FFF790FD00214FF48010FFF707
:101D40008BFD56E0CA48844209D101214805FFF7BE
:101D500083FD00214FF40010FFF77EFD49E0C548E8
:101D6000844208D101214020FFF783FD002140205B
:101D7000FFF77FFD3DE0C048844208D1012180206B
:101D8000FFF777FD00218020FFF773FD31E0BB48AE
:101D9000844208D101218015FFF76BFD0021A015B9
:101DA000FFF767FD25E0B648844209D10121080408
:101DB000FFF752FD00214FF48030FFF74DFD18E092
:101DC000B048844209D101214804FFF745FD0021B4
:101DD0004FF40030FFF740FD0BE0AB48844208D1E0
:101DE00001218804FFF738FD00214FF48020FFF720
:101DF00033FD10BD00220288944B98420ED0994BBF
:101E000098420BD0B0F1804F08D0914B984205D04A
:101E1000904B984202D0904B984204D14FF68F736A
:101E20001A404B881A438D4B984207D08C4B9842EE
:101E300004D04FF6FF431A40CB881A4302808B88A8
:101E400083850B880385814B98420BD0854B984244
:101E500008D08B4B984205D08A4B984202D08A4BCF
:101E6000984201D10B7A038601238382704770B5B3
:101E7000002400220023058C4FF6FE7635400584B1
:101E8000028C8388048B4FF68F752C40B51E2C4036
:101E90000D882C43751E2A400D892A434D882A43FC
:101EA0006A4DA8420BD06F4DA84208D0744DA8428D
:101EB00005D0744DA84202D0734DA84213D14FF6FD
:101EC000F7752A404D892A434FF6FB752A408D88C5
:101ED0002A434FF6FF652B404FF6FF552B408D8967
:101EE0002B43CD892B4383800483CD888586028450
:101EF00070BD70B5002400220023058C4FF6EF76EC
:101F000035400584028C8388048B48F6FF752C408D
:101F10004FF6FF452C400D884FF6FF7606EA052563
:101F20002C434FF6DF752A400D8906EA05152A4332
:101F30004D8806EA05152A43444DA84202D0494D72
:101F4000A8421DD14FF67F752A404D894FF6FF7686
:101F500006EA05152A434FF6BF752A408D8806EA22
:101F600005152A434FF6FF352B404FF2FF752B40E6
:101F70008D8906EA85052B43CD8906EA85052B4325
:101F800083800483CD880587028470BD70B50024EA
:101F900000220023058C4FF6FF6635400584028C35
:101FA0008388848B4FF68F752C404FF6FC752C4040
:101FB0000D882C434FF6FF552A400D894FF6FF76CA
:101FC00006EA05252A434D8806EA05252A431F4DC2
:101FD000A84202D0234DA8421DD14FF2FF752A40DE
:101FE0004D894FF6FF7606EA05252A434FF6FF3561
:101FF0002A408D8806EA05252A434EF6FF752B40B8
:102000004DF6FF752B408D8906EA05152B43CD89CA
:1020100006EA05152B4383808483CD888587028457
:1020200070BD70B5002200230024058C4EF6FF76AB
:1020300035400584038C8488828B48F6FF752A40DE
:102040004FF6FF452A400D8820E00000002C01409B
:102050000004004000080040000C00400010004058
:102060000014004000340140004C01400050014089
:102070000054014000180040001C004000200040B7
:102080000040014000440140004801404FF6FF7607
:1020900006EA05252A434DF6FF752B400D8906EA11
:1020A00005352B434D8806EA05352B43FA4DA842EA
:1020B00002D0FA4DA84208D14BF6FF752C408D890D
:1020C0004FF6FF7606EA85152C4384808283CD88FF
:1020D000A0F84050038470BD828B4FF2FF331A404A
:1020E0008283828B4FF6FF7303EA01231A438283B4
:1020F0007047F0B50C461546002200210026078CDB
:102100004EF6FF7C07EA0C070784828B018C4FF6A2
:10211000FF7707EA043640F6FF473A404FF6FF776D
:1021200007EA05273A434FF6FF7707EA03373A43B2
:10213000D94FB8420ED0D94FB8420BD0B0F1804F32
:1021400008D0D74FB84205D0D64FB84202D0D64FAC
:10215000B84206D14DF6FF77394046F480573943EF
:1021600005E047F6FF57394044F4805739438283EE
:102170000184F0BD828B4FF6F3731A408283828B09
:102180000A4382837047F0B50C46154600220021B1
:102190000026078C4FF6FF6C07EA0C070784828B3A
:1021A000018C4FF6FF7707EA04264FF60C773A408A
:1021B0004FF6FF7707EA03172F433A43B64FB8426B
:1021C0000ED0B64FB8420BD0B0F1804F08D0B44F0C
:1021D000B84205D0B34FB84202D0B34FB84206D18F
:1021E0004FF6FF57394046F48077394305E04FF208
:1021F000FF57394044F48077394382830184F0BD2E
:10220000028B4FF2FF331A400283028B4FF6FF73AB
:1022100003EA01231A4302837047F0B50C461546C2
:10222000002200210026078C4FF6EF7C07EA0C07FE
:102230000784028B018C4FF6FF7707EA041640F6FD
:10224000FF473A404FF6FF7707EA03373A434FF626
:10225000FF7707EA05273A438F4FB8420ED08F4FDA
:10226000B8420BD0B0F1804F08D08D4FB84205D0A6
:102270008C4FB84202D08C4FB84206D14FF6DF7770
:10228000394046F01007394305E04FF65F77394093
:1022900044F01007394302830184F0BD028B4FF6EE
:1022A000F3731A400283028B0A4302837047F0B52E
:1022B0000C46154600220021068C4FF6FE773E4064
:1022C0000684028B018C4FF60C7632407E1C06EAA7
:1022D00003162E433243704EB0420ED06F4EB042C2
:1022E0000BD0B0F1804F08D06D4EB04205D06D4E8E
:1022F000B04202D06C4EB04206D14FF6FD7631406E
:1023000044F00106314305E04FF6F576314044F0E4
:102310000106314302830184F0BD70B505460C46C9
:102320005D4885420ED05D4885420BD0B5F1804FA7
:1023300008D05B48854205D05A48854202D05A48A9
:10234000854200D100E000BF208850B92389A288CF
:1023500061882846FFF7ABFFE1882846FFF79EFF1C
:1023600025E0208804280AD12389A288618828468C
:10237000FFF753FFE1882846FFF742FF17E0208868
:1023800008280AD12389A28861882846FFF7FBFE26
:10239000E1882846FFF7EEFE09E02389A2886188DC
:1023A0002846FFF7A6FEE1882846FFF795FE70BD98
:1023B0002DE9F04105460C4600260127608808B942
:1023C000022600E00026A088012801D1022700E0B3
:1023D00001272088A0B92389A28861882846FFF7B1
:1023E00066FFE1882846FFF759FF23893A463146C0
:1023F0002846FFF712FFE1882846FFF701FF13E0A8
:102400002389A28861882846FFF707FFE1882846CC
:10241000FFF7F6FE23893A4631462846FFF747FF85
:10242000E1882846FFF73AFFBDE8F0810A884B882B
:102430001A438B881A43CB881A430B891A434B895A
:102440001A438B891A43A0F8442070474FF6FF7156
:10245000818000210180C18041800172704700218C
:10246000018041808180C180018141818181C18160
:102470007047002101804180012181800021C180BD
:10248000018170470021018041808180C1800181EC
:102490004181818170470000002C014000340140DF
:1024A0000004004000080040000C004021B10288F8
:1024B00042F00102028004E002884FF6FE731A40E7
:1024C0000280704731B1B0F8442042F40042A0F8D5
:1024D000442005E0B0F84420C2F30E02A0F84420E6
:1024E00070471AB183890B43838102E083898B4350
:1024F000838170478182704741EA0203A0F8483027
:1025000070471AB183890B43838102E083898B432F
:102510008381704701894FF6F8721140018170473D
:102520000A46002101894FF68F731940114301813A
:10253000704730B504460D4629462046FFF7F0FFA8
:10254000208940F00700208130BD2DE9F04104468C
:102550000D4616461F46602D06D13B4601223146E8
:102560002046FFF75AFE05E03B4601223146204651
:10257000FFF79DFE29462046FFF7D2FF208940F055
:1025800007002081BDE8F08130B50C4600210189AB
:10259000C9B24FF6FF7505EA0325154325432943C4
:1025A000018130BD2DE9F04105460E46174698469B
:1025B000002443463A4631462846FFF7E5FF2C897A
:1025C0004FF6F870044044F007044FF68F70044053
:1025D00044F070042C81BDE8F081F0B504460D464E
:1025E00016461F463B46324629462046FFF7CCFF9B
:1025F000208940F480402081F0BD018582827047AF
:102600000A46002101884FF68F731940114301805B
:102610007047F0B50C4615461E46002100220023E7
:102620000189028B038C4FF6F877394021434FF62E
:10263000FC473A4040F201173A434FF6DD773B4002
:102640004FF6FF7707EA06172F433B4301810283CA
:102650000384F0BD0A460021018B4FF68F731940A9
:102660001143018370470A460021018B48F6FF732E
:1026700019404FF6FF7303EA0223194301837047A1
:102680000A460021818B4FF68F73194011438183D5
:1026900070470A460021818B48F6FF7319404FF6B8
:1026A000FF7303EA022319438183704721B1028833
:1026B00042F08002028004E002884FF67F731A40E5
:1026C0000280704721B1828842F00402828004E0D7
:1026D00082884FF6FB731A408280704721B182884E
:1026E00042F00802828004E082884FF6F7731A40B5
:1026F0008280704721B1828842F00102828004E02A
:1027000082884FF6FE731A40828070470A46002185
:10271000018B4FF6F77319401143018370470A4646
:102720000021018B4FF2FF7319404FF6FF7303EA4C
:1027300002231943018370470A460021818B4FF61B
:10274000F77319401143818370470A460021818B3A
:102750004FF2FF7319404FF6FF7303EA0223194348
:10276000818370470A460021018B4FF6FB731940A5
:102770001143018370470A460021018B4FF6FF3356
:1027800019404FF6FF7303EA022319430183704790
:102790000A460021818B4FF6FB7319401143818358
:1027A00070470A460021818B4FF6FF3319404FF6E0
:1027B000FF7303EA02231943818370470A4600210D
:1027C000018B4FF67F7319401143018370470A460E
:1027D0000021018BC1F30E014FF6FF7303EA0223C0
:1027E0001943018370470A460021818B4FF67F739E
:1027F00019401143818370470A460021818BC1F340
:102800000E014FF6FF7303EA0223194381837047D9
:102810000A460021018C4FF6FD73194011430184D3
:1028200070470A460021018C4FF6F7731940114397
:10283000018470470A460021018C4FF6DF7319406E
:102840004FF6FF7303EA02131943018470470A46E7
:102850000021018C4FF67F7319404FF6FF7303EA96
:1028600002131943018470470A460021018C4FF678
:10287000FF5319404FF6FF7303EA02231943018403
:1028800070470A460021018C4FF2FF7319404FF642
:10289000FF7303EA02231943018470470A460021AB
:1028A000018C4DF6FF7319404FF6FF7303EA0233B4
:1028B00019430184704730B5002301248C40A3B232
:1028C000048C9C430484048C02FA01F5ADB22C43C1
:1028D000048430BD30B5002304248C40A3B2048CA2
:1028E0009C430484048C02FA01F5ADB22C430484A9
:1028F00030BD70B50346002000241846183001256D
:102900008D40ACB21D8CA5431D8409B1082909D1A5
:1029100000EB6100056825F070050560056815434A
:1029200005600EE00D1FC5F34E052844056825F42B
:10293000E045056005684FF6FF7606EA0226354356
:10294000056070BD21B1028842F00202028004E0FD
:1029500002884FF6FD731A400280704721B1028849
:1029600042F00402028004E002884FF6FB731A4032
:102970000280704721B1828842F08002828004E0A8
:1029800082884FF67F731A408280704702884FF624
:10299000F7731A40028002880A43028070478288D7
:1029A0004FF68F731A40828082880A438280704774
:1029B00002894FF6F8731A40028102890A430281A4
:1029C000704702894FF67F731A40028102890A43D9
:1029D0000281704781847047818570478186704786
:1029E0000187704781877047A0F8401070470288C0
:1029F0004FF6FF431A40028002880A430280704764
:102A00000146888E70470146088F70470146888FBF
:102A100070470146B1F8400070470146888C704706
:102A20000146088D704702460020138A0B4201D0F0
:102A3000012000E000207047CA430282704730B591
:102A40000246002000230024158A05EA0103958927
:102A500005EA010413B10CB1012000E0002030BDF3
:102A6000CA4302827047000031490143314A116074
:102A7000704770B5002100230F22C4780CB32D4C91
:102A8000246804F4E064C4F5E064210AC1F104039D
:102A9000CA40447804FA03F18478144021430901C0
:102AA000254C0678A155047804F01F050124AC409C
:102AB00005786D114FF0E02606EB8505C5F800415D
:102AC00009E0047804F01F050124AC401B4D067892
:102AD000761145F8264070BD194A0A400243154B4D
:102AE0001B1F1A60704739B1124A121D1268024347
:102AF000104B1B1D1A6006E00E4A121D126882431D
:102B00000C4B1B1D1A607047042808D14FF0E021C0
:102B1000096941F004014FF0E022116107E04FF034
:102B2000E021096921F004014FF0E02211617047B2
:102B30000000FA050CED00E000E400E080E100E0B8
:102B400080FFFF1F10B50446FB48844209D10121D4
:102B50008803FEF781FE00214FF48040FEF77CFEE3
:102B600032E0F648844209D101214804FEF781FE93
:102B700000214FF40030FEF77CFE25E0F04884424F
:102B800009D101218804FEF774FE00214FF4802052
:102B9000FEF76FFE18E0EB48844209D10121C8041A
:102BA000FEF767FE00214FF40020FEF762FE0BE007
:102BB000E548844208D101210805FEF75AFE0021AC
:102BC0004FF48010FEF755FE10BD2DE9F04786B09A
:102BD00005460E460024A24600BFA1460027B08944
:102BE00000B100BF2F462C8A4CF6FF700440F088DD
:102BF00004432C82AC894EF6F3100440B08831892E
:102C00000843718908430443AC81AC8A4FF6FF4006
:102C10000440B0890443AC8201A8FEF796FDC64883
:102C2000874202D1DDF810A001E0DDF80CA0A889F0
:102C300010F4004F08D00AEBCA0000EB0A1031680C
:102C40004900B0FBF1F807E00AEBCA0000EB0A10FC
:102C500031688900B0FBF1F86420B8FBF0F00401A2
:102C60002009642101FB1089A88910F4004F08D0C5
:102C7000322000EBC900B0FBF1F000F00700044384
:102C800008E0322000EB09106421B0FBF1F000F005
:102C90000F0004432C8106B0BDE8F0874FF41651B5
:102CA000016000218180C18001810C2141810021CE
:102CB0008181704710B502460020108A4FF2FF0351
:102CC00018400B884C8823438C882343CC882343AB
:102CD0001843108210BD0021018041808180C18095
:102CE000704721B1828942F40052828104E08289D6
:102CF0004DF6FF731A4082817047F0B503460024F9
:102D0000002600250020A1F510676A3F00D100BF12
:102D10001846C1F3421401F01F06012707FA06F511
:102D2000012C01D10C3004E0022C01D1103000E064
:102D300014301AB107682F43076002E00768AF43F9
:102D40000760F0BD1AB1838A0B43838202E0838A55
:102D50008B4383827047028A4FF6F0731A400282D7
:102D6000028A0A430282704782894FF2FF731A4037
:102D7000828182890A438281704721B1828942F02F
:102D80000202828104E082894FF6FD731A4082813B
:102D90007047028A4FF6DF731A400282028A0A43A2
:102DA0000282704721B1028A42F48042028204E02A
:102DB000028A4BF6FF731A4002827047C1F3080281
:102DC0008280704701468888C0F308007047818977
:102DD00041F0010181817047028BD2B20283028BE4
:102DE00042EA012202837047028B02F47F4202838F
:102DF000028B0A430283704721B1828A42F020028B
:102E0000828204E0828A4FF6DF731A408282704722
:102E100021B1828A42F01002828204E0828A4FF657
:102E2000EF731A408282704721B1828A42F0080211
:102E3000828204E0828A4FF6F7731A4082827047DA
:102E400021B1828942F40042828103E08289C2F387
:102E50000E028281704721B1828A42F4006282822E
:102E600004E0828A4FF2FF731A4082827047828A9E
:102E70004FF6FB731A408282828A0A43828270472D
:102E800021B1828A42F00202828204E0828A4FF6F5
:102E9000FD731A408282704702460020B1F5007F20
:102EA00000D100BF13880B4201D0012000E00020B8
:102EB000704701F40072B2F5007F00D100BFCA4331
:102EC0000280704770B502460024002300250020D0
:102ED000A1F510666A3E00D100BFC1F3421501F0B2
:102EE0001F03012606FA03F3012D02D19689334010
:102EF00006E0022D02D1168A334001E0968A334063
:102F00000C12012606FA04F41688344013B10CB1F1
:102F1000012000E0002070BD10B500220023A1F5C3
:102F200010646A3C00D100BF0A1201249440A3B28D
:102F3000DC43048010BD0000003801400044004024
:102F400000480040004C0040005000400020444930
:102F50000860091D0860091D0860091D08604148D6
:102F60003F4914310860704700213D498279002AA9
:102F70003AD00A46126803689A430B461A600A1D43
:102F8000126803689A430B1D1A60027911440A689B
:102F900003681A430A60324A0832126803689A4387
:102FA0002F4B08331A601A1D126803689A432C4B82
:102FB0000C331A604279102A0ED11A1F1268036866
:102FC0001A43274B08331A601A1D126803681A4304
:102FD000234B0C331A600DE02149427911440A68F1
:102FE00003681A430A6005E0027911440A6803681D
:102FF0009A430A6070470021016001710C21417100
:103000000021817170471649103109680143144A43
:1030100010321160704701460020114A14321268C4
:103020000A4201D0012000E0002070470C49143111
:1030300008607047014600200022094B1B6803EA24
:103040000102074B14331B680B4202D00AB1012066
:1030500000E000207047024914310860704700000A
:1030600000040140FFFF0F0010B50446BE48844233
:1030700008D101218014FEF7EFFB0021A014FEF718
:10308000EBFB16E0B948844208D101210014FEF799
:10309000F0FB00212014FEF7ECFB0AE0B448844268
:1030A00007D10121C013FEF7E4FB0021E013FEF776
:1030B000E0FB10BD10B50022028802F441520B88DB
:1030C0004C8823438C882343CC8823430C89234397
:1030D0004C8923438C892343CC8923431A430280A0
:1030E000838B4FF2FF74234083830B8A038210BDCE
:1030F0002DE9F04F85B005460C464FF00009022738
:103100004FF000084FF0010B0026B246A88B4FF29B
:1031100040010840A88302202884B5F81C90A068CC
:10312000022801D100BF38E0A08810B94FF0010B90
:1031300001E04FF0020B8D48854200D100E000BF56
:103140006846FEF702FBDDF800A0E088B0F5007FDE
:103150000AD14FEA1A2000EB80004000A168B0FBC2
:10316000F1F0401D86B20BE04FEA4B10BAFBF0F0D5
:1031700000EB80004000A168B0FBF1F0401D86B27A
:103180000A20B6FBF0F606F00108A6EB0800C0F333
:103190004F074FF6FF7000EA0828022F01DBFF2FD0
:1031A00002DD02274FF00008E08840EA08003843BB
:1031B0002884A088A189084361880843218808439E
:1031C00040F4006040EA0909A5F81C9005B0BDE88C
:1031D000F08F0021018041808180C1800181418187
:1031E0008181C181072101827047002101804180D6
:1031F0008180C1800221816000218181704721B1DD
:10320000028842F04002028004E002884FF6BF7359
:103210001A400280704721B1828B42F4806282831F
:1032200004E0828B4FF6FF331A408283704730B53B
:10323000002400230C110125A540ABB21AB18588EA
:103240001D43858002E085889D43858030BD1AB18D
:1032500083880B43838002E083888B43838070479D
:1032600081817047014688897047A1F57E42FF3A07
:1032700004D0028842F48072028004E002884FF693
:10328000FF631A400280704721B1828842F0040235
:10329000828004E082884FF6FB731A408280704778
:1032A00002884FF2FF731A40028002880A430280AC
:1032B0007047018841F480510180704721B1028834
:1032C00042F40052028004E002884DF6FF731A4077
:1032D0000280704702460020012901D0108B00E0D7
:1032E000908A70470146088A7047B1F5804F04D133
:1032F000028842F48042028004E002884BF6FF73A9
:103300001A40028070470246002013890B4201D008
:10331000012000E000207047CA4302817047F0B5E9
:103320000246002000240023002501F00F0701269B
:10333000BE40B4B20B1101269E40B3B2968806EA95
:1033400003051689264202D00DB1012000E00020BD
:10335000F0BD10B5002201F00F040123A3409AB282
:10336000D343038110BD000000300140003800400D
:10337000003C004001460020FE4A106800F0380082
:10338000084310607047FB49096821F00801F94AB9
:10339000116011460968014311607047F5490968D9
:1033A00021F01001F34A11601146096801431160D0
:1033B0007047F148EF494860F04848607047EE4870
:1033C000EC494860ED4848607047EA48006940F0C1
:1033D0008000E84908617047E648006940F08000D5
:1033E000E449086170470420E249C96811F0010FFF
:1033F00001D001200EE0DF49C96811F0040F01D0AF
:10340000022007E0DB49C96811F0100F01D003204A
:1034100000E00420704700B502460423FFF7E3FFF5
:10342000034603E0FFF7DFFF0346521E012B01D1E5
:10343000002AF7D102B90523184600BD30B504466D
:1034400004254FF43020FFF7E6FF0546042D17D181
:10345000C848006940F00200C64908610846446156
:10346000006940F0400008614FF43020FFF7D3FFBF
:103470000546C048006941F6FD710840BD49086134
:10348000284630BD10B504244FF43020FFF7C3FFA9
:103490000446042C16D1B748006940F00400B54931
:1034A00008610846006940F0400008614FF4302090
:1034B000FFF7B1FF0446AF48006941F6FB710840D1
:1034C000AC490861204610BD00B502460423FFF751
:1034D0008AFF034603E0FFF786FF0346521E012BD7
:1034E00001D1002AF7D102B90523184600BD10B555
:1034F00004244FF43020FFF7E7FF0446042C16D1D4
:103500009C48006940F004009A4908610846006937
:1035100040F0400008614FF43020FFF7D5FF04462B
:103520009448006941F6FB710840924908612046C1
:1035300010BD00208F49C96911F0020F01D0012090
:1035400000E00020704730B5A5250424FFF7F1FF07
:1035500000B100254FF43020FFF75DFF0446042C36
:103560003AD1854883498860844888600846006964
:1035700040F0200008610846006940F04000086102
:103580004FF43020FFF747FF0446042C1BD1794845
:10359000006941F6DF710840764908610846006914
:1035A00040F01000086176480580E002FFF733FF25
:1035B0000446052C10D06F48006941F6EF710840B1
:1035C0006C49086108E0052C06D06A48006941F69C
:1035D000EF71084067490861204630BD78B506465E
:1035E0000C46042500200090E802FFF714FF054672
:1035F000042D24D15F48006940F001005D49086155
:103600003480E802FFF707FF0546042D10D1B01CF7
:103610000090200C00990880E802FFF7FCFE0546A8
:103620005448006941F6FE7108405249086106E0BD
:103630005048006941F6FE7108404E49086128462D
:1036400078BD70B504460D460426F002FFF7E3FE90
:103650000646042E11D14748006940F00100454953
:1036600008612580F002FFF7D6FE06464148006952
:1036700041F6FE7108403F490861304670BD70B5A3
:1036800005460E460424E002FFF7C5FE0446042C5E
:1036900017D139483749886038488860084600693A
:1036A00040F0100008612E80E002FFF7B4FE0446EF
:1036B000052C06D02F48006941F6EF7108402D49CE
:1036C0000861204670BD2DE9F04304464FF6FF76B1
:1036D0003746B046B1460425E443E6B2C4F30727B3
:1036E000C4F307484FEA1469E802FFF794FE054661
:1036F000042D49D120481F49886020488860084629
:10370000006940F010000861FF2E06D01C48083008
:103710000680E802FFF77FFE0546042D08D1FF2F43
:1037200006D017480A300780E802FFF774FE054606
:10373000042D0AD1B8F1FF0F07D011480C30A0F8C2
:103740000080E802FFF767FE0546042D0AD1B9F1B3
:10375000FF0F07D00A480E30A0F80090E802FFF7EC
:103760005AFE0546052D0FD00248006941F6EF715B
:10377000084007E00020024023016745AB89EFCDF8
:1037800000F8FF1F664908612846BDE8F08330B5A0
:10379000054604244FF43020FFF73DFE0446042C78
:1037A00041D160485E4988605F488860084600698A
:1037B00040F0200008610846006940F040000861C0
:1037C0004FF43020FFF727FE0446042C22D1544842
:1037D000006941F6DF7108405149086108460069F7
:1037E00040F0100008611DB100205049088002E03F
:1037F000A5204E4908804FF43020FFF70CFE044608
:10380000052C10D04648006941F6EF710840444944
:10381000086108E0052C06D04148006941F6DF71D7
:1038200008403F490861204630BDF0B505460E46C8
:10383000174604243B483A4988603B488860E002C8
:10384000FFF7E9FD0446042C19D13548006940F022
:1038500010003349086147F0F800304328433349EA
:10386000891C0880E002FFF7D6FD0446052C06D02F
:103870002B48006941F6EF7108402949086120464C
:10388000F0BD2748C069800870472548006A704726
:1038900000202349096811F0200F01D0012000E029
:1038A0000020704729B11E4A126902431C4B1A615D
:1038B00004E01B4A12698243194B1A6170470146A2
:1038C0000020012908D1164AD26912F0010F01D057
:1038D000012008E0002006E0114AD2680A4201D027
:1038E000012000E0002070470D49C86070470420A7
:1038F0000B49C96811F0010F01D001200EE0084901
:10390000C96811F0040F01D0022007E00449C9681A
:1039100011F0100F01D0032000E0042070470000D8
:103920000020024023016745AB89EFCD00F8FF1F5F
:103930000CB50020019000906B48006840F4803086
:103940006949086000BF6848006800F400300090D2
:103950000198401C0190009818B90198B0F5A06F2B
:10396000F1D16148006810F4003F02D001200090BE
:1039700001E0002000900098012842D15B480068D7
:1039800040F01000594908600846006820F0030024
:1039900008600846006840F002000860524840682D
:1039A000514948600846406848600846406840F40D
:1039B000806048600846406820F47C1048600846F3
:1039C000406840F4E81048600846006840F08070A5
:1039D000086000BF4448006810F0007FFAD04248F9
:1039E000406820F00300404948600846406840F0C5
:1039F0000200486000BF3C48406800F00C00082806
:103A0000F9D10CBD10B5FFF793FF10BD10B53648C6
:103A1000006840F0010034490860084640683449B5
:103A200008403149486008460068324908402E493C
:103A300008600846006820F4802008600846406856
:103A400020F4FE0048604FF41F008860FFF7DAFFA3
:103A50004FF000602849086010BD10B5002100201B
:103A60000022214B5B6803F00C0121B1042906D030
:103A7000082928D107E0214B214C236027E01F4B68
:103A80001F4C236023E0184B5B6803F47010164B47
:103A90005B6803F48032022303EB904022B9194B98
:103AA0004343174C23600DE00F4B5B6813F4003F5A
:103AB00004D0144B4343124C236003E00F4B4343A9
:103AC0000F4C236003E00D4B0D4C236000BF00BF83
:103AD000054B5B68C3F303130B4CE15C084B1B689D
:103AE000CB40074C236010BD001002400020024074
:103AF0000000FFF8FFFFF6FE08ED00E000127A007C
:103B00002401002000093D00280100207FB5054662
:103B10000C4601210220FDF792FEADF80850ADF8E9
:103B200004400020ADF80A00ADF8060001A91648CF
:103B3000FEF760F9012211461348FEF7D2FC1D2062
:103B40008DF8000000208DF8010001208DF80200A2
:103B50008DF803006846FEF78CFF01210A48FEF746
:103B6000A5FC7FBD10B501210748FEF768FF50B1E5
:103B700001210548FEF774FF044800680449086005
:103B800000200249086010BD000400400801002028
:103B90000C010020F0B480EA0102D40F4200B2EB25
:103BA000410F02D20246084611464A0042D0C30DD8
:103BB000DDB2C1F3C752AD1A202D35DAC1F31601BB
:103BC00041F4000204B15242C5F1200602FA06F1A6
:103BD0002A411044B3EBD05F23D0C4B1012DA0EB38
:103BE000C35009DCF0BC4FF0004202EAC35200F5BA
:103BF0000000DBB200F006BB400000F1807000EB7B
:103C0000C350A0F1807040EAD170490009E0490832
:103C100041EAC071A0EBC35000F50000400800EB82
:103C2000C350F0BC00F0E5BA6142012202EB410151
:103C3000001BF6E7F0BC704781F00041AAE780F076
:103C40000040A7E780EA010210B502F000434000FF
:103C500026D04A0023D04FEA106101EB1261C0F375
:103C60005600C2F3560240F4000042F40002A0FBEA
:103C70000220A1F17F014FEA0040140401D000F1BD
:103C8000010050EA124001D44000491EC2B20C06A5
:103C900004EBD010401C4008802A02D003E0002032
:103CA00010BD20F00100002900DA0020184310BDEB
:103CB00030B480EA010202F0004530F0004221F009
:103CC000004015D0A0B1C0F3C753C2F3C754C2F32C
:103CD0001601C0F31600E41A41F4000140F400029A
:103CE0007D34914201D3641C00E04900002C02DACB
:103CF00030BC002070474FF400000023914201D3F4
:103D0000891A034340084FEA4101F7D151B191426A
:103D100002D14FF0004105E002D24FF0010101E075
:103D20006FF0010103EBC450284430BC00F061BACD
:103D30002DE9FE4F804681EA0300C00F0C4600903B
:103D400021F0004123F00045B8EB0200A94105D263
:103D50004046214690461C460B46024623F0004052
:103D6000104304D14046214603B0BDE8F08F270D33
:103D7000C7F30A00C3F30A510290401A0190402889
:103D800066DAC3F3130040F4801B0098924620B11A
:103D90000023D2EB030A63EB0B0B01985946C0F1E9
:103DA0004002504600F0F4F906460D46504659468A
:103DB000019A00F00CFA10EB08006141002487EA38
:103DC000115284EAE7731A433BD0009A3AB3019A3E
:103DD000012A4FEA075210DC001B61EB02014FF091
:103DE000004202EA0752CDE90042001C41F5801171
:103DF00032462B4600F040FAB6E7001B61EB0201A9
:103E0000001C41F5801300185B412018A2F5001733
:103E100047EB030140EAD570B6196D4111E06D081A
:103E20004FEA360645EAC0754FEA0752001B61EBC0
:103E30000201001C41F5801149084FEA30000019C9
:103E4000514132462B4603B0BDE8F04F00F007BAAF
:103E50000098012240000023D0EB020263EBE073E4
:103E6000009821464FEAE074B8EB000061EB0401D2
:103E7000E9E783F000435BE781F0004158E72DE973
:103E8000FE4F81EA030404F0004421F00041009455
:103E90004FF0000B23F0004350EA010402D052EA35
:103EA000030404D10020014603B0BDE8F08FC3F342
:103EB0000A54C1F30A552C44A4F2F3340194A0FB34
:103EC0000254C1F3130141F48011C3F3130343F40B
:103ED000801301FB024400FB034E840A970A44EA64
:103EE000815447EA8357A4FB076802958D0A05FBB6
:103EF00007854FEA932C04FB0C542705029D4FEADB
:103F0000065847EA1637B5EB08056EEB070C870E27
:103F1000920E47EA811742EA8312A7FB0201B6EB31
:103F20000B0164EB00042B0D43EA0C335E1844EBE9
:103F30001C50DA465146E7FB0201C5F313044FEA71
:103F40000B3343EA14534FEA0432019C43EA06035D
:103F5000A4F10C040294009CCDE900B400F08CF9AB
:103F6000A2E72DE9F04D81EA030404F0004B21F0B3
:103F7000004514464FF0000A23F0004150EA0502C4
:103F800020D054EA01021DD0C5F30A570246C5F3FA
:103F90001303C1F31300C1F30A5640F4801543F430
:103FA0008013A7EB0608101BD64608F2FD3873EB0A
:103FB000050002D308F1010801E092185B41B8F155
:103FC000000F03DA00200146BDE8F08D00204FF419
:103FD0008011064684460EE0171B73EB050705D3D8
:103FE000121B63EB050306434CEA010C49084FEA38
:103FF000300092185B4150EA0107EDD152EA03000C
:1040000012D082EA040083EA0501084303D10022AA
:104010004FF0004308E0101BAB4102D20122002305
:1040200002E06FF0010253101AEB06004CEB08514E
:1040300010EB0A0041EB0B01BDE8F04D00F00FB9A9
:10404000C10F80EAE0700844CA079623002100F0FF
:10405000D9B896230022114600F0D4B80EB5C10F8E
:1040600080EAE0700844CA07002140F233438DE83B
:104070000E000A460B4600F0FFF803B000BD0EB577
:1040800040F2334102910021CDE900110A460B466E
:1040900000F0F2F803B000BD70B5C1F30A5201F0B0
:1040A00000450024C1F3130140F2FF3341F48011B5
:1040B0009A4201DA002070BD40F233439A42A2F2E4
:1040C000334203DC524200F072F800E090402C438F
:1040D000F1D0404270BDC1F30A5210B5C1F31301D3
:1040E00040F2FF3341F480119A4201DA002010BD02
:1040F00040F233439A42A2F2334203DC524200F0D0
:1041000056F810BD904010BD00F0004230F0004065
:104110000AD0C10D01F56071C0F3160042EA0151E9
:10412000C20840071143704700200146704701F064
:10413000004330B421F0004150EA010206D00A0DDC
:10414000A2F56072C1F31301002A02DC30BC00202A
:104150007047440F44EAC104C100E01830BC00EBD2
:10416000C25000F046B80000002801DBC0F100405A
:10417000002901DBC1F1004181427047002801DBC9
:10418000C0F10040002901DBC1F1004188427047C5
:10419000202A04DB203A00FA02F100207047914007
:1041A000C2F1200320FA03F3194390407047202AFC
:1041B00004DB203A21FA02F00021704721FA02F3D1
:1041C000D040C2F120029140084319467047202A8E
:1041D00006DBCB17203A41FA02F043EAE07306E02F
:1041E00041FA02F3D040C2F120029140084319463F
:1041F00070470029A8BF7047401C490008BF20F045
:104200000100704710B4B0FA80FC00FA0CF050EADC
:10421000010404BF10BC704749B1CCF1200421FA5D
:1042200004F411FA0CF118BF012121430843A3EB58
:104230000C01CB1D0106000A002BBEBF002010BCE4
:10424000704700EBC35010440029A4BF10BC704756
:10425000401C490008BF20F0010010BC704710B599
:10426000002B08DA401C41F1000192185B411A430F
:1042700001D120F0010010BD2DE9F04D92469B4682
:1042800011B1B1FA81F202E0B0FA80F22032904628
:10429000FFF77EFF04460F4640EA0A0041EA0B01A1
:1042A00053465A46084303D120463946BDE8F08DAF
:1042B000114653EA010015D0C8F140025046FFF7FD
:1042C00076FF05460E46504659464246FFF760FFC8
:1042D000084301D0012000E00020054346EAE076D3
:1042E0002C4337430A984FEA4453A0EB08004FEAA7
:1042F000D4240A304FF0000244EA47544FEAD7254D
:1043000002D500200146D1E7010510196941DDE918
:10431000084500196941BDE8F04DA0E7064C074D7E
:1043200006E0E06840F0010394E807009847103485
:10433000AC42F6D3FBF700FFC4430008E443000897
:1043400070B501EB020410F8015B15F0070301D111
:1043500010F8013B2A1106D110F8012B03E010F8E8
:10436000016B01F8016B5B1EF9D12B0705D400230B
:10437000521E0FD401F8013BFAE710F8013B02F19D
:104380000202A1EB030303E013F8015B01F8015BF8
:10439000521EF9D5A142D6D3002070BD02E008C854
:1043A000121F08C1002AFAD170477047002001E0AF
:1043B00001C1121F002AFBD17047FFFFFFFFFFFF63
:1043C000FFFFFFFFE4430008000000203801000069
:1043D000404300082C440008380100204804000035
:1043E000AC43000801124B4040044B803F08012EB3
:1043F000DA0904011005260AD7233C4B1847301A66
:10440000A33015803F031E0D1D1E0432327A012C8D
:104410005A640201122D0102030404100906070860
:0C4420000902040608ACA24A041C29187A
:0400000508000131BD
:00000001FF
